:1000000001308A0076290000FF00030E8301A10061
:100010000A08A0008A010408A2007708A300780853
:10002000A4007908A5007A08A6007B08A70083131E
:1000300083128B1E1D280B193028220884002308E8
:10004000F7002408F8002508F9002608FA00270818
:10005000FB0020088A00210E8300FF0E7F0E09009E
:100060008A110A123328AA0A2A08463C031D3E2890
:10007000AA018316851002308312850629122908E9
:10008000831687001030831287060B118A110A121B
:100090001D284B3084008313000803195D280530A8
:1000A000F800F701F70B5228F80B51282E30F70013
:1000B000F70B58285B28800B4F2808008711A911DF
:1000C00029088316870083128712A912290883162C
:1000D000870000308312281801305202031D752852
:1000E00028188A28D208031D8A28071429102908ED
:1000F000831687008312D208031D80288512812869
:100100008516831685128312071029102908831675
:1001100087008312530893008316140C031C8D2848
:1001200083122810521828140800071029102908D3
:100130008316870083128712A91229088316870065
:1001400083128715A9112908831687008312871443
:10015000A91029088316870083128710A91029087F
:100160008316870032308312CB0049208714A910F0
:1001700029088316870083128715A9112908831679
:10018000870083128716A912290883168700831215
:100190008715A9112908831687000A308312CB001E
:1001A0004920D2010130D3005E20D2012530D30096
:1001B0005E200130D2002E30D3005E20D2011130FB
:1001C000D3005E200A30CB004920D2012030D3007A
:1001D0005E20D2013830D3005E20D2012930D30016
:1001E0005E20D2011330D3005E20D2013630D3001E
:1001F0005E200130D200D3015E20D2013A30D3001C
:100200005E200130D2000530D3005E20D2012A30BA
:10021000D3005E200130D200D3015E200130D20035
:100220007F30D3005E20D201B430D3005E20013095
:10023000D2000830D3005E20D201BA30D3005E2055
:100240000130D2000D30D3005E20D2012B30D3001C
:100250005E200130D200D3015E200130D2007F3019
:10026000D3005E208A110A12AC29CE017F30CF0064
:10027000D001D100D2012A30D3005E200130D2005B
:100280004E08D3005E200130D2004F08D3005E201C
:10029000D2012B30D3005E200130D2005008D300B1
:1002A0005E200130D2005108D3005E20D2012C30F4
:1002B000D3005E208516831685128312CD01CC01F2
:1002C0004D083F3C031C75294B08CE00CF0101307F
:1002D000D2004B08D3005E200130D2004A08D30080
:1002E0005E20CC0A0319CD0A60290800840183131B
:1002F0001F308305FF30A90083161F149F141F159C
:100300009F1183129412A912290883168700831261
:1003100029162908831687008312A9112908831634
:100320008700203083129400403083169400010827
:10033000C039043881001F149F141F159F118312A8
:100340001F108B16C0308B040430CA00FA30CB006B
:100350004920CA0BA6299528F830CB00CA013521BF
:100360000430CA00FA30CB004920CA0BB22907304A
:10037000CB00E030CA0035210430CA00FA30CB008F
:100380004920CA0BBE29CB011F30CA0035210430D9
:10039000CA00FA30CB004920CA0BC929CE29630014
:02400E003A3D39
:00000001FF
;PIC16F876
;CRC=3C8A  CREATED="21-abr-14 18:59"
