:10000000A9EF05F0F76A140FF66E000EF72209004B
:10001000F5501200000000000000005F0000000327
:10002000000300143E143E14242A7F2A124333088E
:10003000666136495522500005030000001C22412C
:10004000000041221C0014083E081408083E08085D
:100050000050300000080808080800606000002018
:10006000100804023E5149453E0004027F004261EF
:1000700051494622414949361814127F10274545F7
:1000800045393E4949493201017109073649494913
:1000900036264949493E00363600000056360000F3
:1000A00008142241001414141414004122140802EC
:1000B000015109063E4159555E7E0909097E7F4975
:1000C0004949363E414141227F4141413E7F4949B4
:1000D00049417F090909013E4141493A7F08080821
:1000E0007F00417F4100304040403F7F0814224163
:1000F0007F404040407F020C027F7F0204087F3E29
:100100004141413E7F090909061E2121215E7F09E7
:1001100009097600F76A240FF66E010EF72209002E
:10012000F5501200264949493201017F01013F4043
:1001300040403F1F2040201F7F2010207F41221C75
:10014000224107087008076151494543007F41007B
:100150000002040810200000417F0000070507008E
:100160004040404040000102040020545454787F35
:10017000444444383844444444384444447F385424
:1001800054541804047E0505085454543C7F080454
:10019000047800447D40002040443D007F10284406
:1001A0000000417F40007C047804787C08040478D7
:1001B00038444444387C14141408081414147C0083
:1001C0007C080404485454542004043F44443C40F4
:1001D00040207C1C2040201C3C4030403C442810E7
:1001E00028440C5050503C4464544C440008364160
:1001F0004100007F00004141360800020102040274
:10020000030EEA6E0C0EE96EEF500EE00F0E016E5B
:10021000006A002EFED7012EFBD78F0E006E002E37
:10022000FED70000EF2EF2D7000C03013E51400331
:10023000F3CF01F0F4CF00F04103F35000263F511B
:100240004003F3500020026E0001000C93928A924A
:1002500093968A9603013B5302E18A9401D08A84E3
:10026000939493968A863B2D1AD03F6B04C33EF33A
:10027000416B080E406F0001D8DF01C03EF303015F
:1002800005510124016E000E0220036E0150040F7F
:10029000E96E000E0320EA6E3CC3EFFF042B3D6BBA
:1002A0003D51070814E393968A963CAF03D093948C
:1002B0008A8402D093948A9493968A86D8903C3705
:1002C000270E006E002EFED700D03D2BE9D793926B
:1002D0008A820001000C03013B6B400E3C6F000161
:1002E000B5DF03013B6BB00E3C6F0001AFDF0301D4
:1002F0003B6B100E3C6F0001A9DF03013B6B3C6BB5
:100300000001A4DF03013B6BAE0E3C6F00019EDFDA
:1003100003010C6B0C3D01D008D0010E3B6F3C6B10
:10032000000194DF03010C2BF5D70C6B0C3D01D0C1
:1003300008D0010E3B6F3C6B000188DF03010C2BE2
:10034000F5D70C6B0C3D01D008D0010E3B6F3C6B18
:1003500000017CDF03010C2BF5D70C6B0C516208FC
:1003600008E3010E3B6F3C6B000170DF03010C2BB7
:10037000F5D73B6BAF0E3C6F000168DF19EF02F061
:1003800093928A9293908A90050E03010C6F00015C
:1003900037DF93908A8003013B6B200E3C6F000196
:1003A00055DF03013B6B900E3C6F00014FDF0301F3
:1003B0003B6BA40E3C6F000149DF03013B6B2F0E2A
:1003C0003C6F000143DF03013B6B400E3C6F0001BB
:1003D0003DDF03013B6BB00E3C6F000137DF0301D3
:1003E0003B6B100E3C6F000131DF03013B6B3C6B3C
:1003F00000012CDF03013B6BC80E3C6F000126DFC0
:1004000003013B6BA10E3C6F000120DF03013B6B3E
:10041000AC0E3C6F00011ADF03013B6B070E3C6F13
:10042000000114DF03013B6BAF0E3C6F00010EDFD8
:1004300052D703013B6BA70E3C6F000107DF640E30
:1004400003010C6F0001DCDE03013B6BA60E3C6F69
:100450000001FCDE640E03010C6F0001D1DEC4EF6D
:1004600008F0030139510F0BB0093A6F3B6B3C6F39
:100470000001ECDE030138510F0B3A6F3B6B3C6F10
:100480000001E4DE03013839006E0F0E0016005043
:10049000070B10093A6F3B6B3C6F0001D7DE62EF30
:1004A00002F0010E0301356F28C304F32931056FF3
:1004B000053305331F0E051728C338F305C339F379
:1004C0000001CFD703013F6B28C33EF3416B080EF9
:1004D000406F0001AADE01C038F303010551012479
:1004E000016E000E0220036E0150040FE96E000E33
:1004F0000320EA6EEFCF37F32A2D0FD02951070BD7
:10050000386F010E006E3851016E04E0D89000364D
:10051000012EFCD7005037130FD02951070B386F2D
:10052000010E006E3851016E04E0D8900036012EA5
:10053000FCD70050FF0A3717010E3B6F37C33CF35F
:10054000000184DE000C010E0301216F226F276B76
:1005500018511A5D286F285128AF03D0000ED8809B
:100560002855036A1F6F03C020F319511B5D286FC4
:10057000285128AF03D0000ED8802855036A1D6F7C
:1005800003C01EF318511A5D02E2FF0E216F1951CC
:100590001B5D02E2FF0E226F1E51205D3BE303E173
:1005A0001D511F5D37E3D8901D371E371F511D5D4C
:1005B000006E20511E5900C023F3246F1F51235D8C
:1005C000256F20512459266F205303E127511F5DC9
:1005D00020E318C328F319C329F31CC32AF300012D
:1005E00060DF030124BF01D008D01D5123271E5115
:1005F000242321511825186F0AD02551232726516D
:10060000242321511825186F22511925196F272BE2
:10061000DBD736D0D8901F3720371D511F5D006EB5
:100620001E51205900C023F3246F1D51235D256FF7
:100630001E512459266F1E5303E127511D5D20E3EF
:1006400018C328F319C329F31CC32AF3000129DFB7
:10065000030124BF01D008D01F5123272051242398
:1006600022511925196F0AD02551232726512423F9
:1006700021511825186F22511925196F272BDBD707
:100680000001000C006A016A03011551D89016B1EF
:1006900000260032013216B300260032013216B5B0
:1006A00000260032013216B700260032013216B998
:1006B00000260032013216BB00260032013216BD80
:1006C00000260032013216BF00260032013200013E
:1006D000000C0301116B0EC312F3010ED8800E55EE
:1006E000136F0F5361E011510C5D146F12510D2502
:1006F000156F11510C25166F12510D25176F14C36C
:1007000018F315C319F316C31AF31B6F10C31CF3A8
:10071000000119DF030111510C5D146F12510D5DC1
:10072000156F11510C25166F12510D5D176F14C303
:1007300018F315C319F316C31AF31B6F10C31CF378
:10074000000101DF030112510C5D146F11510D25E1
:10075000156F12510C25166F11510D25176F14C30B
:1007600018F315C319F316C31AF31B6F10C31CF348
:100770000001E9DE030112510C5D146F11510D5D92
:10078000156F12510C25166F11510D5D176F14C3A3
:1007900018F315C319F316C31AF31B6F10C31CF318
:1007A0000001D1DE70D003010C511125146F0D51E1
:1007B0001225156F14C328F3296F10C32AF3000103
:1007C00070DE03010C511225146F0D511125156FA8
:1007D00014C328F3296F10C32AF3000162DE03015A
:1007E00011510C5D146F0D511225156F14C328F3B0
:1007F000296F10C32AF3000154DE030112510C5D6E
:10080000146F0D511125156F14C328F3296F10C3F0
:100810002AF3000146DE03010C511225146F115119
:100820000D5D156F14C328F3296F10C32AF300015F
:1008300038DE03010C511125146F12510D5D156F37
:1008400014C328F3296F10C32AF300012ADE030121
:1008500011510C5D146F12510D5D156F14C328F307
:10086000296F10C32AF300011CDE030112510C5D35
:10087000146F11510D5D156F14C328F3296F10C348
:100880002AF300010EDE030113BF01D00ED0115177
:10089000112B146F020E156F14C316F30001F2DE54
:1008A0000150030F0301132711D01151112B146FA5
:1008B00012511207145D146F020E156F14C316F354
:1008C0000001E0DE0150050F030113271151800ADA
:1008D000006E1251800A005CD8B403D7D8A001D7AB
:1008E0000001D1EF08F00FC303F003010EC3E9FFCD
:1008F0000FC3EAFFEF52D8B4C8D00FC303F00EC342
:10090000E9FF0FC3EAFFEF50520822E30FC303F0E1
:100910000EC3E9FF0FC3EAFF200EEF5C050DF35095
:10092000036A1B6F030EEA6E160EE96E1F6B1BC384
:100930001EF3050E016EF76A1B51000102EC00F078
:100940000A000900F5CFEEFF012EFBD732D00301DC
:100950000FC303F00EC3E9FF0FC3EAFFEF507E0899
:1009600022E30FC303F00EC3E9FF0FC3EAFF530EE8
:10097000EF5C050DF350036A1B6F030EEA6E160E53
:10098000E96E1F6B1BC31EF3050E016EF76A1B5148
:1009900000018AEC00F00A000900F5CFEEFF012EFD
:1009A000FBD707D00301166B176B186B196B1A6B0B
:1009B00000010FC303F003010E51E96E03C0EAFF0B
:1009C000EF500A0A000103E0070A09E00BD0030117
:1009D0001051070DF350010F0D2750D000010301F6
:1009E0000C6B4CD003011051050DF3500C255F0822
:1009F00006E20C6B1051070DF350010F0D27126B1F
:100A0000125104083BE3136B1351060833E3036AE6
:100A10001251160FE96E030E0320EA6EEFCF1BF39F
:100A20001BC300F01351016E04E0D8900032012E78
:100A3000FCD700A01DD0146B1051145D19E2156B8A
:100A40001051155D13E215510C251B6F1351100346
:100A5000F3500D2514251C6F1BC328F3296F11C3F8
:100A60002AF300011EDD0301152BEAD7142BE4D76E
:100A7000132BCAD7122B10510C27C2D70E2BD8B468
:100A80000F2B0C2B00012FD703010001000C0301D9
:100A900010532EE00E510C5D05E20CC313F30EC390
:100AA00014F304D00EC313F30CC314F30F510D5DF4
:100AB00005E20DC315F30FC316F304D00FC315F3EE
:100AC0000DC316F31351145D12E315C312F3125143
:100AD000165D0BE313C328F312C329F311C32AF3E2
:100AE0000001DFDC0301122BF2D7132BEBD72ED042
:100AF0000CC318F30DC319F30EC31AF30DC31BF384
:100B000011C31CF300011FDD0CC318F30FC319F34D
:100B10000EC31AF30FC31BF311C31CF314DD0CC374
:100B200018F30DC319F30CC31AF30FC31BF311C34E
:100B30001CF309DD0EC318F30DC319F30EC31AF32A
:100B40000FC31BF311C31CF3FEDC030100010AEF0A
:100B500009F0F86AD09EEA6AE96AC150C00B0F0931
:100B6000C16E070EB46E046A056A066A076A086AEF
:100B7000096A0A6A0B6A0C6A0D6A0E6A0F6A106AC1
:100B8000116A126A136A146A156A166A176A186A71
:100B9000196A1A6A1B6A1C6A1D6A1E6A1F6A206A21
:100BA000216A226A236A246A256A266A276A286AD1
:100BB000296A2A6A2B6A2C6A2D6A2E6A2F6A306A81
:100BC000316A326A336A346A356A366A376A386A31
:100BD000396A3A6A3B6A3C6A3D6A3E6A3F6A406AE1
:100BE000416A426A436A446A456A466A476A486A91
:100BF000496A4A6A4B6A4C6A4D6A4E6A4F6A506A41
:100C0000516A526A536A546A556A566A576A586AF0
:100C1000596A5A6A5B6A5C6A5D6A5E6A5F6A606B9F
:100C2000616B626B636B646B656B666B676B686B48
:100C3000696B6A6B6B6B6C6B6D6B6E6B6F6B706BF8
:100C4000716B726B736B746B756B766B776B786BA8
:100C5000796B7A6B7B6B7C6B7D6B7E6B7F6B806B58
:100C6000816B826B836B846B856B866B876B886B08
:100C7000896B8A6B8B6B8C6B8D6B8E6B8F6B906BB8
:100C8000916B926B936B946B956B966B976B986B68
:100C9000996B9A6B9B6B9C6B9D6B9E6B9F6BA06B18
:100CA000A16BA26BA36BA46BA56BA66BA76BA86BC8
:100CB000A96BAA6BAB6BAC6BAD6BAE6BAF6BB06B78
:100CC000B16BB26BB36BB46BB56BB66BB76BB86B28
:100CD000B96BBA6BBB6BBC6BBD6BBE6BBF6BC06BD8
:100CE000C16BC26BC36BC46BC56BC66BC76BC86B88
:100CF000C96BCA6BCB6BCC6BCD6BCE6BCF6BD06B38
:100D0000D16BD26BD36BD46BD56BD66BD76BD86BE7
:100D1000D96BDA6BDB6BDC6BDD6BDE6BDF6BE06B97
:100D2000E16BE26BE36BE46BE56BE66BE76BE86B47
:100D3000E96BEA6BEB6BEC6BED6BEE6BEF6BF06BF7
:100D4000F16BF26BF36BF46BF56BF66BF76BF86BA7
:100D5000F96BFA6BFB6BFC6BFD6BFE6BFF6B0101C0
:100D6000006B016B026B036B046B056B066B076B0F
:100D7000086B096B0A6B0B6B0C6B0D6B0E6B0F6BBF
:100D8000106B116B126B136B146B156B166B176B6F
:100D9000186B196B1A6B1B6B1C6B1D6B1E6B1F6B1F
:100DA000206B216B226B236B246B256B266B276BCF
:100DB000286B296B2A6B2B6B2C6B2D6B2E6B2F6B7F
:100DC000306B316B326B336B346B356B366B376B2F
:100DD000386B396B3A6B3B6B3C6B3D6B3E6B3F6BDF
:100DE000406B416B426B436B446B456B466B476B8F
:100DF000486B496B4A6B4B6B4C6B4D6B4E6B4F6B3F
:100E0000506B516B526B536B546B556B566B576BEE
:100E1000586B596B5A6B5B6B5C6B5D6B5E6B5F6B9E
:100E2000606B616B626B636B646B656B666B676B4E
:100E3000686B696B6A6B6B6B6C6B6D6B6E6B6F6BFE
:100E4000706B716B726B736B746B756B766B776BAE
:100E5000786B796B7A6B7B6B7C6B7D6B7E6B7F6B5E
:100E6000806B816B826B836B846B856B866B876B0E
:100E7000886B896B8A6B8B6B8C6B8D6B8E6B8F6BBE
:100E8000906B916B926B936B946B956B966B976B6E
:100E9000986B996B9A6B9B6B9C6B9D6B9E6B9F6B1E
:100EA000A06BA16BA26BA36BA46BA56BA66BA76BCE
:100EB000A86BA96BAA6BAB6BAC6BAD6BAE6BAF6B7E
:100EC000B06BB16BB26BB36BB46BB56BB66BB76B2E
:100ED000B86BB96BBA6BBB6BBC6BBD6BBE6BBF6BDE
:100EE000C06BC16BC26BC36BC46BC56BC66BC76B8E
:100EF000C86BC96BCA6BCB6BCC6BCD6BCE6BCF6B3E
:100F0000D06BD16BD26BD36BD46BD56BD66BD76BED
:100F1000D86BD96BDA6BDB6BDC6BDD6BDE6BDF6B9D
:100F2000E06BE16BE26BE36BE46BE56BE66BE76B4D
:100F3000E86BE96BEA6BEB6BEC6BED6BEE6BEF6BFD
:100F4000F06BF16BF26BF36BF46BF56BF66BF76BAD
:100F5000F86BF96BFA6BFB6BFC6BFD6BFE6BFF6B5D
:100F60000201006B016B026B036B046B056B066B7C
:100F7000076B086B096B0A6B0B6B0C6B0D6B0E6BC5
:100F80000F6B106B116B126B136B146B156B166B75
:100F9000176B186B196B1A6B1B6B1C6B1D6B1E6B25
:100FA0001F6B206B216B226B236B246B256B266BD5
:100FB000276B286B296B2A6B2B6B2C6B2D6B2E6B85
:100FC0002F6B306B316B326B336B346B356B366B35
:100FD000376B386B396B3A6B3B6B3C6B3D6B3E6BE5
:100FE0003F6B406B416B426B436B446B456B466B95
:100FF000476B486B496B4A6B4B6B4C6B4D6B4E6B45
:101000004F6B506B516B526B536B546B556B566BF4
:10101000576B586B596B5A6B5B6B5C6B5D6B5E6BA4
:101020005F6B606B616B626B636B646B656B666B54
:10103000676B686B696B6A6B6B6B6C6B6D6B6E6B04
:101040006F6B706B716B726B736B746B756B766BB4
:10105000776B786B796B7A6B7B6B7C6B7D6B7E6B64
:101060007F6B806B816B826B836B846B856B866B14
:10107000876B886B896B8A6B8B6B8C6B8D6B8E6BC4
:101080008F6B906B916B926B936B946B956B966B74
:10109000976B986B996B9A6B9B6B9C6B9D6B9E6B24
:1010A0009F6BA06BA16BA26BA36BA46BA56BA66BD4
:1010B000A76BA86BA96BAA6BAB6BAC6BAD6BAE6B84
:1010C000AF6BB06BB16BB26BB36BB46BB56BB66B34
:1010D000B76BB86BB96BBA6BBB6BBC6BBD6BBE6BE4
:1010E000BF6BC06BC16BC26BC36BC46BC56BC66B94
:1010F000C76BC86BC96BCA6BCB6BCC6BCD6BCE6B44
:10110000CF6BD06BD16BD26BD36BD46BD56BD66BF3
:10111000D76BD86BD96BDA6BDB6BDC6BDD6BDE6BA3
:10112000DF6BE06BE16BE26BE36BE46BE56BE66B53
:10113000E76BE86BE96BEA6BEB6BEC6BED6BEE6B03
:10114000EF6BF06BF16BF26BF36BF46BF56BF66BB3
:10115000F76BF86BF96BFA6BFB6BFC6BFD6BFE6B63
:10116000FF6B0301006B016B026B036B046B056B80
:10117000540E076F450E086F530E096F540E0A6F19
:101180000B6B0001C0EF01F04C0E03010C6F260E3B
:101190000D6F0A0E0E6F0F6B010E106F000169EFDD
:1011A00003F05F0E0301186F196B1A6B400E1B6F73
:1011B000010E1C6F0001A3EC02F00A0E03010C6F7C
:1011C0000F0E0D6F030E0F6F070E0E6F010E106FD7
:1011D000116F000173EC04F00A0E03010C6F190E7D
:1011E0000D6F030E0F6F070E0E6F020E106F010EC4
:1011F000116F000173EC04F03C0E03010C6F320E12
:101200000D6F5C0E0E6F3C0E0F6F010E106F116FA5
:1012100000013DD4410E03010C6F340E0D6F030E1F
:101220000F6F070E0E6F010E106F116B000173EC44
:0612300004F0FFD70300EB
:020000040030CA
:0E00000023CE381E0087A1000FC00FE00F4076
:00000001FF
;PIC18F4550
;CRC=F92F  CREATED="09-abr-14 15:43"
