:1000000000308A00232800000A108A100A11820793
:10001000BF348634DB34CF34E634ED34FD348734FA
:10002000FF34E73418309602031C2228163084006F
:10003000FC3080050310800C800C00080319222876
:10004000800B2028003484011F3083052C3093005E
:100050000130940092011208093C031C4628120842
:100060000420950083168601831215088600140863
:100070009500950A950303194128FF309600122038
:100080003A28130896001220920A2B282A28630087
:02400E00F13F80
:00000001FF
;PIC16F84A
