:1000000000308A00FA280000FF00030E8301A100DF
:100010007F08A0000A08A7008A01A00E0408A20019
:100020007708A3007808A4007908A5007A08A6003C
:10003000831383128C308400801E20288C1A8A2817
:100040008B1E24280B194E28220884002308F70051
:100050002408F8002508F9002608FA0027088A0075
:10006000210E8300FF0E7F0E09000A108A100A116C
:100070008207533465346D3420345234653463342C
:1000800065347034E734E3346F3400340A108A1076
:100090000A118207413454340D340034D30A031951
:1000A000D40A5308143C031D6528D408031D652891
:1000B000D214D401D3010430D2065219612806109B
:1000C000622806148316061083120B118A11242845
:1000D00083160510831205100830F8006F28000001
:1000E000F8178028F813D90C03180514031C051001
:1000F000781780287813F80B73287E2800000514E1
:100100001C308400840B82288528F81B7228781BF9
:100110007A28080081010B118B16D21CA028D70168
:1001200057083520003803199928D70AD9006820C4
:1001300090280D30D90068200A30D9006820D210EC
:100140008C1EE12828305107840083138C1EA628BA
:100150001A088000283051078400831300080A3CE5
:10016000031DDF28D00A5008033C031DDE28D00100
:1001700001305107283E840083138001D1015214BD
:10018000283084008313003000040319D728D801D5
:100190000408D7005810831B58140008D9006820A1
:1001A00057088400831358188317840AC3280D3016
:1001B000D90068200A30D9006820E128E028D10A57
:1001C000A0288B128C128A112428563084008313A5
:1001D00000080319F9280130F800F701F70BEE28A1
:1001E000F80BED284A30F700F70BF428F728800BBE
:1001F000EB280800840183131F3083051930831610
:100200009900A6309800903083129800831605104C
:1002100083120514D001D1015210D21007309F0073
:100220005211D301D401C0308B0483168C160108FF
:10023000C0390538810008308312D500FA30D60065
:10024000E520D50B1E29D501550846200038031995
:100250002E29D50A0C1E2A29990024290D300C1E9E
:100260002F2999000A300C1E332999001430D5002B
:0C027000FA30D600E520D50B38296300D9
:02400E00213F50
:00000001FF
;PIC16F628A
;CRC=3189  CREATED="22-mai-12 19:28"
