:0410000088EF0EF077
:08100800046ED8CF05F0E0CF23
:1010100006F00001E9CF0CF0EACF07F0E1CF08F0CD
:10102000E2CF09F0D9CF0AF0DACF0BF0F3CF12F00C
:10103000F4CF13F0FACF14F0F5CF15F0F6CF16F089
:10104000F7CF17F000C00EF001C00FF002C010F093
:1010500003C011F0F2AA30EF08F0F2B4A5EF0CF0E3
:101060000EC000F00FC001F010C002F011C003F07C
:101070000CC0E9FF07C0EAFF078E08C0E1FF09C006
:10108000E2FF0AC0D9FF0BC0DAFF12C0F3FF13C0A2
:10109000F4FF14C0FAFF15C0F5FF16C0F6FF17C025
:1010A000F7FF045006C0E0FF05C0D8FF1000BC0FDA
:1010B000F66E100EF7220900F55012000000000035
:1010C0000000000000000000003078787830300028
:1010D000303000000066666624000000000000005A
:1010E000006C6CFE6C6C6CFE6C6C000030307CC074
:1010F000C0780C0CF8303000000000C4CC18306010
:10110000CC8C00000070D8D870FADECCDC76000001
:10111000003030306000000000000000000C18308B
:1011200060606030180C0000006030180C0C0C1867
:1011300030600000000000663CFF3C6600000000DC
:1011400000000018187E18180000000000000000C1
:1011500000000000383860000000000000FE0000C1
:10116000000000000000000000000000383800000F
:10117000000002060C183060C0800000007CC6CE63
:10118000DED6F6E6C67C0000001030F0303030309D
:1011900030FC00000078CCCC0C183060CCFC000097
:1011A0000078CC0C0C380C0CCC780000000C1C3CEB
:1011B0006CCCFE0C0C1E000000FCC0C0C0F80C0C77
:1011C000CC780000003860C0C0F8CCCCCC780000EF
:1011D00000FEC6C6060C1830303000000078CCCCBB
:1011E000CC78CCCCCC7800000078CCCCCC7C181857
:1011F000307000000000003838000038380000006F
:10120000000000383800003838183000000C183062
:1012100060C06030180C0000000000007E007E00FE
:1012200000000000006030180C060C183060000050
:101230000078CC0C1830300030300000007CC6C67E
:10124000DEDEDEC0C07C0000003078CCCCCCFCCC34
:10125000CCCC000000FC6666667C666666FC00001E
:10126000003C66C6C0C0C0C6663C000000F86C66A4
:10127000666666666CF8000000FE6260647C64600E
:1012800062FE000000FE6662647C646060F0000044
:10129000003C66C6C0C0CEC6663E000000CCCCCCCA
:1012A000CCFCCCCCCCCC00000078303030303030AE
:1012B00030780000001E0C0C0C0CCCCCCC7800005C
:1012C00000E6666C6C786C6C66E6000000F06060AE
:1012D0006060626666FE000000C6EEFEFED6C6C610
:1012E000C6C6000000C6C6E6F6FEDECEC6C60000D4
:1012F00000386CC6C6C6C6C66C38000000FC666600
:10130000667C606060F0000000386CC6C6C6CEDE49
:101310007C0C1E0000FC6666667C6C6666E600005F
:101320000078CCCCC07018CCCC78000000FCB43075
:10133000303030303078000000CCCCCCCCCCCCCCB1
:10134000CC78000000CCCCCCCCCCCCCC783000001D
:1013500000C6C6C6C6D6D66C6C6C000000CCCCCC21
:10136000783078CCCCCC000000CCCCCCCC783030F1
:101370003078000000FECE9818306062C6FE000093
:10138000003C303030303030303C0000000080C055
:101390006030180C06020000003C0C0C0C0C0C0C0D
:1013A0000C3C000010386CC600000000000000007B
:1013B00000000000000000000000FF0030301800B6
:1013C000000000000000000000000000780C7CCC51
:1013D000CC76000000E060607C66666666DC00003B
:1013E0000000000078CCC0C0CC780000001C0C0CC1
:1013F0007CCCCCCCCC7600000000000078CCFCC0CB
:10140000CC78000000386C6060F8606060F000002C
:101410000000000076CCCCCC7C0CCC7800E0606086
:101420006C76666666E600000018180078181818D2
:10143000187E0000000C0C003C0C0C0C0CCCCC7882
:1014400000E06060666C786C66E600000078181852
:1014500018181818187E000000000000FCD6D6D618
:10146000D6C6000000000000F8CCCCCCCCCC0000EC
:101470000000000078CCCCCCCC780000000000004C
:10148000DC666666667C60F00000000076CCCCCC42
:10149000CC7C0C1E00000000EC6E766060F000005A
:1014A0000000000078CC6018CC78000000002060BC
:1014B000FC6060606C38000000000000CCCCCCCC3C
:1014C000CC76000000000000CCCCCCCC7830000002
:1014D00000000000C6C6D6D66C6C000000000000FC
:1014E000C66C38386CC60000000000006666666690
:1014F0003C0C18F000000000FC8C1860C4FC0000DC
:10150000001C303060C06030301C0000001818181B
:10151000180018181818000000E03030180C1830A7
:1015200030E000000073DACE000000000000000090
:1015300000000010386CC6C6FE000000000000006D
:10154000000000000000000000000000000000009B
:10155000000000000000000000000000000000008B
:10156000000000000000000000000000000000007B
:10157000000000000000000000000000000000006B
:10158000000000000000000000000000000000005B
:10159000000000000000000000000000000000004B
:1015A000000000000000000000000000000000003B
:1015B000000000000000000000000000000000002B
:1015C000000000000000000000000000000000001B
:1015D000000000000000000000000000000000000B
:1015E00000000000000000000000000000000000FB
:1015F00000000000000000000000000000000000EB
:1016000000000000000000000000000000000000DA
:1016100000000000000000000000000000000000CA
:1016200000000000000000000000000000000000BA
:1016300000000000000000000000000000000000AA
:10164000000000000000000000000000000000009A
:10165000000000000000000000000000000000008A
:10166000000000000000000000000000000000007A
:10167000000000000000000000000000000000006A
:10168000000000000000000000000000000000005A
:10169000000000000000000000000000000000004A
:1016A000000000000000000000000000000000003A
:1016B000000000000000000000000000CA0FF66EED
:1016C000160EF7220900F55012000000000000007D
:1016D000005F00000007000700147F147F14242A15
:1016E0007F2A1223130864623649552250000503ED
:1016F0000000001C2241000041221C0014083E088A
:101700001408083E080800503000000808080808BF
:10171000006060000020100804023E5149453E0070
:10172000427F400042615149462141454B311814E6
:10173000127F1027454545393C4A49493001710916
:1017400005033649494936064949291E00363600FF
:10175000000056360000081422410014141414141A
:1017600000412214080201510906324979413E7EA6
:101770001111117E7F494949363E414141227F4145
:1017800041221C7F494949417F090909013E4149DC
:10179000497A7F0808087F00417F41002040413F8F
:1017A000017F081422417F404040407F020C027FAD
:1017B0007F0408107F3E4141413E7F090909063EF2
:1017C0004151215E7F0919294646494949310101A4
:1017D0007F01013F4040403F1F2040201F3F4038D5
:1017E000403F6314081463070870080761514945B6
:1017F00043007F41410002040810200041417F0066
:101800000402010204404040404000010204002064
:10181000545454787F48444438384444442038442D
:1018200044487F3854545418087E0901020C52521F
:10183000523E7F0804047800447D40002040443D2F
:10184000007F1028440000417F40007C0418047889
:101850007C0804047838444444387C141414080880
:101860001414187C7C080404084854545420043F81
:101870004440203C4040207C1C2040201C3C403008
:10188000403C44281028440C5050503C4464544C74
:1018900044000836410000007F0000004136080087
:1018A0001008081008784641467800000000000043
:1018B0000000000000000000000000000000000028
:1018C0000000000000000000000000000000000018
:1018D0000000000000000000000000000000000008
:1018E00000000000000000000000000000000000F8
:1018F00000000000000000000000000000000000E8
:1019000000000000000000000000000000000000D7
:1019100000000000000000000000000000000000C7
:1019200000000000000000000000000000000000B7
:1019300000000000000000000000000000000000A7
:10194000000000000000000000001F2A1F502D08AA
:1019500003E11F6A939E8A7EF29430EF08F0202004
:1019600020544553544520202000202020444F205F
:101970004C434420202020200000205349454D4561
:101980004E5320413730200020204279204D617293
:101990006C6F6E2021200000EA6A260EE96EEF507F
:1019A0000EE00F0E016E006A002EFED7012EFBD74F
:1019B0008F0E006E002EFED70000EF2EF2D7B0EF94
:1019C0000EF0270E006E002EFED700D08A90939066
:1019D0008A9293928A949394270E006E002EFED7DB
:1019E00000D08A869396270E006E002EFED700D078
:1019F0008A989398270E006E002EFED700D08A9604
:101A00009396270E006E002EFED700D08A869396FE
:101A10008A8893983EEF0DF04650080804E0476E20
:101A20004536472EFDD7948E939093928A9246C066
:101A300047F045AE8A9045BE8A8045368A82013697
:101A400082AE019082BE01808A92472EF2D72EEF9D
:101A50000DF044C045F0080E466EDED7000C8A90AB
:101A600093908A9293928A9493948A98939843C07D
:101A700044F0EFDF8A889398000CA3D7210E436EC1
:101A8000EEDF140E436EEBDF0A0E436EE8DF050E49
:101A9000436EE5DFCC0E436EE2DF200E436EDFDFE8
:101AA000110E436EDCDF0C0E436ED9DFB3EF0EF088
:101AB000280E436ED4DF470ED8804154426E436EE9
:101AC000CEDF800E4024426E436EC9DF40C01DF061
:101AD00041C01EF0000C8A9093908A9293928A845F
:101AE00093948A98939840C044F0B3DF8A8893987F
:101AF000000C406A070E416EDBDF1C6A1B6A1C503B
:101B000003080AE303E11B502E0806E3406AE3DF03
:101B10001B2AD8B41C2AF3D7B4EF0EF03F50410271
:101B2000F3CF01F0F4CF00F04202F3500026405012
:101B30004102F3500020026E000C2A6A2C6A2B6AC4
:101B40002D6A2E6A2F6A306A316A326A336A346AC1
:101B5000356A366A376A386A396A3A6A3B6A3C6A71
:101B6000800E3D6E010E3E6E27501F0803E2275087
:101B70007F0801E279D0200E275C2B6E2C6A286A40
:101B800028500B0839E3296A2950070828E32CC09C
:101B900040F02BC03FF0426A0C0E416EBFDF02C026
:101BA00040F001C03FF028500124016E000E0220D9
:101BB000036E015003C0F7FF57EC08F03D140BE033
:101BC0002A502924036A2D0FE96E000E0320EA6EC5
:101BD000EF503E10EF6ED8903D32292AD5D7800EB7
:101BE0003D6ED8903E362850070804E1080E2A6E54
:101BF000010E3E6E282AC4D7286A285007080EE333
:101C0000036A28502D0FE96E000E0320EA6EEFCF15
:101C10003FF03FC040F05FDF282AEFD7406A5BDF2C
:101C2000010E1E243F6E1DC040F0416E41DF286A48
:101C30002850070810E3080E2824036A2D0FE96EC8
:101C4000000E0320EA6EEFCF3FF03FC040F043DFCD
:101C50001D2A282AEDD7406A3EDF010E1E5C3F6E2A
:101C60001DC040F0416E24DF40EF0EF00900F55238
:101C70000CE0F6CF25F0F7CF26F0F5CF27F05DD7B3
:101C800025C0F6FF26C0F7FFF1D7000C27501F082C
:101C900003E227507F0801E228D0286A2850040870
:101CA00022E32750E00F2B6E406A3F6E426A050E1A
:101CB000416E34DF02C02BF001C02AF0285001240D
:101CC000016E000E0220036E015003C0F7FFF6DC28
:101CD000296E295203E12750200803E129C040F072
:101CE000FADE282ADBD7406AF6DE81EF0EF0090023
:101CF000F5520CE0F6CF25F0F7CF26F0F5CF27F020
:101D0000C5D725C0F6FF26C0F7FFF1D7D7EF0EF0F5
:101D1000F86AD09E078EEA6AE96A948E939093924D
:101D20008A921D6A1E6AC150C00B0F09C16E070E50
:101D3000B46E196A1A6AC70ED56EC090C082C0947C
:101D4000C08EC280F28AC00EF212000E016EC25026
:101D5000C30B0110C26E020E256EFA0E266E1CD643
:101D6000252EFBD78AD6C5D6406A416AA1DE5E0E13
:101D7000F66E190EF76E7ADF406A020E416E98DE3B
:101D80006A0EF66E190EF76E71DF406A040E416E30
:101D90008FDE7A0EF66E190EF76E68DF406A060E59
:101DA000416E86DE880EF66E190EF76EA0D7FFD74D
:021DB00003002E
:020000040030CA
:0E00000024CE3E1E0087A1000FC00FE00F406F
:00000001FF
;PIC18F4550
;CRC=64BD  CREATED="11-jan-15 20:36"
