:100000008EEF02F0F76A140FF66E000EF722090069
:10001000F5501200000000000000005F0000000327
:10002000000300143E143E14242A7F2A124333088E
:10003000666136495522500005030000001C22412C
:10004000000041221C0014083E081408083E08085D
:100050000050300000080808080800606000002018
:10006000100804023E5149453E04027F00004261EF
:1000700051494622414949361814127F10274545F7
:1000800045393E4949493201017109073649494913
:1000900036264949493E00363600000056360000F3
:1000A00008142241001414141414004122140802EC
:1000B000015109063E4159555E7E0909097E7F4975
:1000C0004949363E414141227F4141413E7F4949B4
:1000D00049417F090909013E4141493A7F08080821
:1000E0007F00417F4100304040403F7F0814224163
:1000F0007F404040407F020C027F7F0204087F3E29
:100100004141413E7F090909061E2121215E7F09E7
:1001100009097600F76A240FF66E010EF72209002E
:10012000F5501200264949493201017F01013F4043
:1001300040403F1F2040201F7F2010207F41221C75
:10014000224107087008076151494543007F41007B
:100150000002040810200000417F00040201020494
:100160004040404040000102040020545454787F35
:10017000444444383844444444384444447F385424
:1001800054541804047E0505085454543C7F080454
:10019000047800447D40002040443D007F10284406
:1001A0000000417F40007C047804787C08040478D7
:1001B00038444444387C14141408081414147C0083
:1001C0007C080404485454542004043F44443C40F4
:1001D00040207C1C2040201C3C4030403C442810E7
:1001E00028440C5050503C4464544C440008364160
:1001F0004100007F00004141360800020102040274
:100200004C696E68612031004C696E686120320073
:100210004C696E68612033004C696E68612034005F
:100220004C696E68612035004C696E68612036004B
:100230004C696E68612037004C696E686120380037
:100240000B500B0803E193968A8602D093988A8814
:1002500093948A9493928A92030E006E002EFED796
:1002600000D093948A84956A0CC08CFF93948A94EE
:1002700093968A9693988A98000C086A0850070803
:1002800038E393908A900B0E0B6E400E0C6ED8DF05
:100290000C0E0B6E400E0C6ED3DF0850B8090A6EC0
:1002A0000B0E0B6E0AC00CF0CBDF0850B8090A6EBB
:1002B0000C0E0B6E0AC00CF0C3DF93908A80096AA3
:1002C00009503F0814E30750FF0DF3CF0AF00B0E5F
:1002D0000B6E0AC00CF0B4DF0750FF0DF3CF0AF02D
:1002E0000C0E0B6E0AC00CF0ABDF092AE9D7082A06
:1002F000C5D7BEEF01F094908B8093948A94939627
:100300008A9693988A9893908A900B0E0B6EF80EAB
:100310000C6E96DF0C0E0B6EF80E0C6E91DF062C39
:100320000BD00B0E0B6E3F0E0C6E8ADF0C0E0B6E9D
:100330003F0E0C6E85DF0AD00B0E0B6E3E0E0C6E60
:100340007FDF0C0E0B6E3E0E0C6E7ADF0B0E0B6E0B
:10035000400E0C6E75DF0C0E0B6E400E0C6E70DFD7
:100360000B0E0B6EB70E0C6E6BDF0C0E0B6EB70E1A
:100370000C6E66DF93908A80076A7FD79BEF02F04E
:1003800093908A90400E0624086E0B0E0B6E08C0E8
:100390000CF056DF400E0624086E0C0E0B6E08C0E3
:1003A0000CF04EDFB70E0724086E0B0E0B6E08C064
:1003B0000CF046DFB70E0724086E0C0E0B6E08C05B
:1003C0000CF03EDF93908A80000C085020080FE16B
:1003D000096A095001080AE30B0E0B6E0C6A30DF44
:1003E0000C0E0B6E0C6A2CDF092AF3D77DD0096A3C
:1003F00009500408D8A078D0085052083AE3200EDB
:10040000085C050DF3500B6A0A6E036A09500A2452
:10041000016E0B5003220150F5DD016E015228E000
:10042000200E085C050DF3500B6A0A6E036A095032
:100430000A24016E0B5003220150E4DD0A6E0B0EFC
:100440000B6E0AC00CF0FCDE200E085C050DF350AC
:100450000B6A0A6E036A09500A24016E0B500322CC
:100460000150D0DD0A6E0C0E0B6E0AC00CF0E8DEF7
:1004700039D0530E085C050DF3500B6A0A6E036AFF
:1004800009500A24016E0B500322015043DE016E15
:10049000015228E0530E085C050DF3500B6A0A6EFA
:1004A000036A09500A24016E0B500322015032DE08
:1004B0000A6E0B0E0B6E0AC00CF0C2DE530E085C07
:1004C000050DF3500B6A0A6E036A09500A24016E87
:1004D0000B50032201501EDE0A6E0C0E0B6E0AC07A
:1004E0000CF0AEDE092A84D70B0E0B6E0C6AA8DE68
:1004F0000C0E0B6E0C6AA4DE88EF02F00900F552B8
:100500000CE0F6CF06F0F7CF07F0F5CF08F05DD797
:1005100006C0F6FF07C0F7FFF1D7000CF86AD09EBF
:10052000EA6AE96AC150C00B0F09C16E070EB46ECA
:10053000010E066EE0D6066A076A22DF000EF66E2E
:10054000020EF76EDBDF066A010E076E19DF080E7A
:10055000F66E020EF76ED2DF066A020E076E10DF2D
:10056000100EF66E020EF76EC9DF066A030E076EF6
:1005700007DF180EF66E020EF76EC0DF066A040E75
:10058000076EFEDE200EF66E020EF76EB7DF066A0D
:10059000050E076EF5DE280EF66E020EF76EAEDF64
:1005A000066A060E076EECDE300EF66E020EF76E71
:1005B000A5DF066A070E076EE3DE380EF66E020E42
:0605C000F76E9CDF030052
:020000040030CA
:0E00000023CE381E0087A1000FC00FE00F4076
:00000001FF
;PIC18F4550
;CRC=FEED  CREATED="03-mar-13 00:24"
