:10000000DCEF00F0010E0C5E0CE3EA6A0C0EE96E08
:10001000EF5007E0020E006E002EFED700D0EF2E4C
:10002000F9D7000C000E936E92948994929689866B
:1000300092988998936A14C08AFF92948984000CDC
:100040009290899013C014F0EDDF000CEA6A0C0E58
:10005000E96EEF500EE00F0E016E006A002EFED723
:10006000012EFBD78F0E006E002EFED70000EF2E64
:10007000F2D7000C1550016A145C03E214C000F0C2
:100080000CD0006A080E166E143600361550005C4F
:10009000D8B0006E0136162EF7D7000C116A10503A
:1000A000B009126E136ECCDF0F500F0B126E136E71
:1000B000C7DF0F38006E0F0E001600501009126EC9
:1000C000136EBEDF010E0F24136E146E060E156E36
:1000D000D1DF01C011F0010E0F24136E146E060E55
:1000E000156EC8DF005001E0112A10C004F011C0E5
:1000F00005F00FC006F0000C929089800EC014F03D
:1001000091DF062A06C00FF004C010F0C7DF000C14
:100110000C6A0C5007080FE30D6A0D507F0809E3C5
:100120000DC00FF00CC010F0B9DF0E6AE5DF0D2A2C
:10013000F4D70C2AEED70F6A106AB0DFD7EF00F0C1
:100140009294899492928992C80E0C6E5BDF92927F
:100150008982C80E0C6E56DFC80E136E71DFA30EB7
:10016000136E6EDFA00E136E6BDFA60E136E68DFCC
:100170002C0E136E65DF030E0C6E68DF2E0E136EF1
:100180005FDF030E0C6E62DF2F0E136E59DF200E41
:10019000136E56DF400E136E53DF810E136E50DF69
:1001A000320E136E4DDFE00E136E4ADFB1D7AF0E85
:1001B000136E46DFECEF00F0F86AD09EEA6AE96A57
:1001C000046A056A066AC150C00B0F09C16E070EAA
:1001D000B46E076A086AB4D70B6A0F6A106A5EDFEA
:1001E000096A0950070805E3FF0E0E6E85DF092A2C
:1001F000F8D70F6A010E106E51DF0B5002080AE3A8
:10020000096A0950070805E3FF0E0E6E75DF092A1B
:10021000F8D708D0096A0950070804E30E6A6CDFB2
:10022000092AF9D70F6A020E106E38DF0B520AE165
:10023000096A0950070805E3FF0E0E6E5DDF092A03
:10024000F8D708D0096A0950070804E30E6A54DF9A
:10025000092AF9D70B2A0B50090801E20B6ABDD70E
:02026000030099
:020000040030CA
:0E00000023CE381E0087A1000FC00FE00F4076
:00000001FF
;PIC18F4550
;CRC=81A0  CREATED="24-abr-13 10:45"
