:1000000000308A00C6280000A234EE34E3346F10BA
:10001000E430A031EF36A0396539E9306C110D05B7
:100020000000C232EC32FA302022EF34E4373A10CA
:10003000223AE539F432A0396539E9306C110D0501
:10004000000083160813831208130830F8002828CC
:100050000000F8173928F813A60C03180817031C1A
:100060000813781739287813F80B2C283728000044
:1000700008170B308400840B3B280000F81B2B284A
:10008000781B33280800831603178C170C14000004
:10009000000083120C087F39031987280313A3007B
:1000A00003170D080313A40003170F080313A5007B
:1000B0002308A6002120240803178D000313250818
:1000C00003178F0083168C170C1400000000831296
:1000D0000C0D0E0D7F39031987280313A300031796
:1000E0000D080313A40003170F080313A50023082A
:1000F000A6002120240803178D00031325080317E9
:100100008F008D0A03198F0A031343280317031363
:100110000800243084008313000803199D2801304F
:10012000F800F701F70B9228F80B91284A30F700F6
:10013000F70B98289B28800B8F288A110A12E72832
:10014000831688168312881AA3280830F700A301A3
:10015000F717B828F713B8280310881A0314A30C4C
:100160007717B8287713F70BAC282308F800C328B3
:100170000B30F71B0330F800F80BBC28F71BAA283C
:10018000771BB228AC288A110A12EB28840183134A
:100190001F3083058316081283120816831608136E
:1001A0008312081783161F149F141F159F11073001
:1001B0009C008312A101043003178D0000308F00D2
:1001C000031343200430A300FA30A4008928A30BB2
:1001D000E428DB28A0287808A2002208A600212015
:1001E00021080A3C031DFC28113003178D00003044
:0E01F0008F0003134320A101A10AEA28630037
:02400E00313F40
:00000001FF
;PIC16F877A
;CRC=1B97  CREATED="12-mai-12 19:09"
