:1000000000308A00752800000A108A100A11820741
:100010004134543448340D3400340A108A100A1123
:100020008207413454342B3443344D3447345334F1
:100030003D3422342534733422340D3400340A1014
:100040008A100A118207413454342B3443344D341E
:10005000473446343D3431340D3400340A108A10AC
:100060000A1182075434653473347434653420348F
:100070006434653420346D3465346E3473346134E3
:10008000673465346D3425346334003483160511C8
:10009000831205110830F8004D280000F8175E287B
:1000A000F813FD0C03180515031C051178175E28BD
:1000B0007813F80B51285C28000005151C308400CB
:1000C000840B60286328F81B5028781B58280800E8
:1000D000220884008313231883177D088000840A74
:1000E0008001A20A0319A30A0800840183131F30A8
:1000F00083058316051183120515831605108312D7
:100100000514A301A20107309F00A001A101FB017A
:100110007B080420003803199128FB0AFD004620C3
:1001200088280D30FD0046200A30FD004620872833
:10013000A3013030A200FB017B080D20FB0AF70071
:10014000FD00682009307B02031D9C2824308400B8
:100150008313003000040319BD28FC010408FB00D0
:100160007C10831B7C140008FD0068207B08840041
:1001700083137C188317840AA9282230FD00682085
:100180000D30FD006820FB017B081F20003803199B
:10019000CD28FB0AFD004620C4280D30FD00462076
:1001A0000A30FD0046203030840083130030000404
:1001B0000319EA28FC010408FB007C10831B7C1453
:1001C0000008FD0046207B08840083137C188317F9
:1001D000840AD6280D30FD0046200A30FD00462056
:1001E000A3013030A200FB017B082E20FB0AF700A0
:1001F000FD00682011307B02031DF4281A30FD0039
:10020000682030308400831300300004031918295B
:10021000FC010408FB007C10831B7C140008FD001B
:1002200046207B08840083137C188317840A0429E2
:0E0230000D30FD0046200A30FD004620630020
:02400E00213F50
:00000001FF
;PIC16F628A
;CRC=9DE4  CREATED="20-jul-12 22:20"
