:100000002EEF01F0EA6A050EE96EEF500EE00F0EDA
:10001000016E006A002EFED7012EFBD78F0E006EF8
:10002000002EFED70000EF2EF2D7000C92908990A0
:1000300093908A9093928A9293908A80080E196E78
:1000400019520FE093908A9018AE03D093928A824F
:1000500002D093928A92D890183693908A8019068B
:10006000EFD792908980000C9290899093908A901B
:1000700093928A8293908A80080E1A6E1A520FE029
:1000800093908A9019AE03D093928A8202D0939271
:100090008A92D890193693908A801A06EFD7929058
:1000A0008980000C93908A9093928A929290898092
:1000B00092928992050E056EA5DF929289829390A5
:1000C0008A8093928A82050E056E9CDFCA0E186E96
:1000D000ADDF0C0E196EC8DF200E196EC5DF196A70
:1000E000C3DF010E196EC0DFBB0E186E9FDF010E5D
:1000F000196EBADFD10E186E99DF940E186E96DF66
:10010000200E186E93DF0F0E196EAEDFA70E186E5D
:100110008DDFBC0E186E8ADF196AA6DF196AA4DFAC
:10012000020E196EA1DF810E186E80DF280E196E87
:100130009BDF030E196E98DF250E186E77DF010E18
:10014000056E60DFAF0E186E71DF39EF01F010C081
:1001500014F011C015F012C016F013C017F0750E90
:10016000186E64DF020E1524186E196E7DDF020E04
:100170001724186E196E78DF150E186E57DF14C02D
:1001800019F072DF16C019F06FDF5C0E186E4EDFCB
:10019000000C06380B6E0F0E0B160638106EF00EA4
:1001A0001016000E0F0B10100C6E06C00DF007504D
:1001B000095C010F106E08500A5C010F1002F35029
:1001C000010F006ED89000300F6E07C010F008C00D
:1001D00011F009C012F00AC013F0B9DF0E6A0F5017
:1001E0000E5C0BE20BC019F03FDF0CC019F03CDFD6
:1001F0000DC019F039DF0E2AF2D707EF01F005C064
:1002000006F0076A086A810E096E0A6EC2D73CEFD3
:1002100001F008380A6E0F0E0A160AC019F024DF22
:1002200008380A6EF00E0A16000E0F0B0A120AC0EA
:1002300019F01ADF09C019F017DF2CEF01F006C022
:1002400010F007C011F006C012F007C013F07FDFF6
:10025000086A05C009F0DDD749EF01F0F86AD09EC1
:10026000EA6AE96AC150C00B0F09C16E070EB46E8D
:1002700019D77C0E056EC3D70A0E106E116E3C0E98
:10028000126E136E64DF320E056E3C0E066E076E44
:06029000D6D7FFD70300E2
:020000040030CA
:0E00000023CE381E0087A1000FC00FE00F4076
:00000001FF
;PIC18F4550
;CRC=0C9B  CREATED="09-jul-11 12:24"
