:100000008DEF03F0120FF66E000EF7220900F55087
:100010001200000080C040700C040404040C183866
:100020000C040404040C18180C0404040C0808182C
:10003000F0E0000000000078CC8C8484040C180CE4
:100040008484C44474180000000000001028242494
:1000500018000000000020FC8404060E12020202B8
:100060000408080888CC6444C48484848C82828216
:10007000824242663C00000000000038EC8402022C
:100080000101010204040408981008088484C4448F
:100090006C300000070E1818181C1C0F08181010E0
:1000A000101010180F030C08080C0C0C0C0C060791
:1000B0000703000000000000000000010101010131
:1000C000010000000000000000000000000000002F
:1000D0000000000000000000000103020604040408
:1000E0000406020301000000000000000000000000
:1000F00000000000000000000000000000010302FA
:1001000002060404040203010103060408080503AF
:1001100000000000000000000000000000000000DF
:1001200000000000000000000000000000000000CF
:1001300000000000101010F09010101000000000DF
:1001400000000000000000000000000000000000AF
:10015000000000000000000000000000000000009F
:10016000000000000000000000000000000000008F
:1001700000000000000000000000000000808080FF
:100180000000FFFF01011901010101010139010115
:1001900001FF00001010F810101010000000000007
:1001A000000000000000000000000000000000004F
:1001B0000000FF01011919010101011901FF0000EF
:1001C0000000E0203F212121213FE000000000004D
:1001D00000000000E0E2223EA3E2222024FC24648E
:1001E00060E0E0E0E000000000000000000000002F
:1001F000000080808080808080B8ACA6EBB59C87B2
:100200008080FFFF0000180000000000043C000098
:1002100000FFFF0119190101010101011919010173
:1002200001FF0000203070F018080001030E7ECCA2
:100230000000FF0000C3C300000000C300FFFC0477
:1002400004048784041C040484840704041C0484B8
:1002500004040404FFFF00F01F0000FC0301000081
:100260000000010FFF00008080C04000000000007F
:100270000000FF00000C0C000008080800001C0033
:100280000000FFFF00000C0C00000000000C00004C
:1002900000FFFF008686000000000000838300004E
:1002A00000FFFF0101111101010101011111010103
:1002B00001FFFF00003030000000003000FFFF00B1
:1002C00000003131000000003131000000000071F9
:1002D00000000000FFFF00000F30E000030C306062
:1002E00080000000FFF0131191971C1010139C1454
:1002F00010F0FF00000F0F000000040400000F00CA
:100300000000FFFF0000C7C7000000000043C0005E
:1003100000FFFF006161000000000000616100005B
:1003200000FFFF00000404000000000004040000BF
:1003300000FFFF00000C0C000000000C00FFFF009D
:1003400000001C1C000000001C1C00000000001C21
:1003500000000000FFFF00000000E11F000000009F
:10036000010FF800FFFF0000E3E300000000E300DE
:1003700000FFFF00008F8F000004040400001F0036
:100380000000FFFF0000303000000000000073009C
:1003900000FFFF808C8C8080C0C0C0808C8C8080EF
:1003A00080FFFF8080828280C0C0C0C08282808047
:1003B00080FFFF80808383808080808380FFFF8038
:1003C00080808ECEC0C0C0C0CECEC0C0C0C0C08EE7
:1003D00080808080FFFF808080C0BF80808080A080
:1003E000B09C8780FFFF8080989880808080988074
:1003F00080FFFF80808787808082828280808780E4
:100400008080FFFF808086868080808080808680DC
:1004100080FFF76A220FF66E040EF7220900F550EE
:100420001200FFFF81818181FFFF010E0E5E0CE350
:10043000EA6A0E0EE96EEF5007E0020E006E002E23
:10044000FED700D0EF2EF9D7000C000E936E9294D9
:1004500089949296898692988998936A1AC08AFF9D
:1004600092948984000C9290899019C01AF0EDDF63
:10047000000CEA6A0E0EE96EEF500EE00F0E016EF0
:10048000006A002EFED7012EFBD78F0E006E002EC5
:10049000FED70000EF2EF2D7000C1B50016A1A5C49
:1004A00003E21AC000F00CD0006A080E1C6E1A3667
:1004B00000361B50005CD8B0006E01361C2EF7D7FA
:1004C000000C176A1650B009186E196ECCDF155063
:1004D0000F0B186E196EC7DF1538006E0F0E001661
:1004E00000501009186E196EBEDF010E1524196E2A
:1004F0001A6E060E1B6ED1DF01C017F0010E152417
:10050000196E1A6E060E1B6EC8DF005001E0172A26
:1005100016C004F017C005F015C006F0000C92904C
:10052000898014C01AF091DF062A06C015F004C0B5
:1005300016F0C7DF000C0E6A0E5007080FE30F6AB3
:100540000F507F0809E30FC015F00EC016F0B9DF99
:10055000146AE5DF0F2AF4D70E2AEED7156A166A59
:10056000B0DFEAEF02F09294899492928992C80ED9
:100570000E6E5BDF92928982C80E0E6E56DFC80E39
:10058000196E71DFA30E196E6EDFA00E196E6BDF90
:10059000A60E196E68DF2C0E196E65DF030E0E6E47
:1005A00068DF2E0E196E5FDF030E0E6E62DF2F0EF8
:1005B000196E59DF200E196E56DF400E196E53DF8B
:1005C000810E196E50DF320E196E4DDFE00E196E7E
:1005D0004ADFB1D7AF0E196E46DF9DEF03F016501C
:1005E0001802F3CF01F0F4CF00F01902F350002607
:1005F00017501802F3500020026E000C0F507808BC
:1006000002E30FC009F01050380802E310C00AF0EE
:10061000116A11500708D8A07DD0036A1150F9DE85
:10062000146E0A50070B016E14C012F0015204E060
:10063000D8901236012EFCD7036A1150EADE146EF0
:100640000A50070BFF0A090F016E14C013F0015284
:1006500004E0D8901332012EFCD70A30146E143205
:1006600014321F0E141609C015F014C016F029DF3D
:100670000A30006E003200321F0E001600C015F066
:10068000176A00C016F0196A800E186EA8DF02C043
:1006900015F001C014F009500124016E000E022073
:1006A000036E015003C0F7FFADDC121212C014F04C
:1006B00036DF0A30006E003200321F0E0016005086
:1006C000010F146E09C015F0166EFBDE0A30006EC5
:1006D000003200321F0E00160050010F156E176A0F
:1006E000166E196A800E186E7ADF02C015F001C00E
:1006F00014F009500124016E000E0220036E015017
:1007000003C0F7FF7FDC131213C014F008DF092ABF
:10071000112A7FD7080E095E000CF86AD09EEA6A9B
:10072000E96A046A056A066AC150C00B0F09C16E06
:10073000070EB46E076A086A16D70D6A0B6A0B506B
:10074000070843E3156A0BC016F0BBDE0DC00CF0C2
:100750000C507F081AE3176A0BC016F0196A800E56
:10076000186E3DDF02C00FF001C00EF00C500124E6
:10077000016E000E0220036E015003C0F7FF42DC41
:100780000E6E146ECCDE0C2AE3D70C6A0D500C5C96
:100790001AE2176A0BC016F0196A800E186E1FDF76
:1007A00002C00FF001C00EF00C500124016E000ECB
:1007B0000220036E015003C0F7FF24DC0E6E146E9E
:1007C000AEDE0C2AE3D70B2ABAD70D2A0D507F08CC
:1007D00001E20D6AB3D7030E0F6E106E0FDF320EFB
:1007E0000E6E47DE958E83BE69D0010E09240E6E13
:1007F0000F6E0AC010F002DF010E095C0E6E0A30A7
:100800000F6E0F320F321F0E0F160EC015F00FC0F5
:1008100016F057DE0A30006E003200321F0E00164E
:1008200000C00FF0176A00C016F0196A800E186E2B
:10083000D6DE02C00FF001C00EF0010E095C0124EB
:10084000016E000E0220036E015003C0F7FF02ECA0
:1008500000F00E6E146E63DE010E095C0E6E0A303F
:10086000006E003200321F0E00160050010F0F6E96
:100870000EC015F0166E25DE0A30006E0032003212
:100880001F0E00160050010F0F6E176A166E196AC0
:10089000800E186EA4DE02C00FF001C00EF0010E33
:1008A000095C0124016E000E0220036E015003C09A
:1008B000F7FF02EC00F00E6E146E31DE958C83BCF7
:1008C0003FD00B6A0B50070834E30B5009240E6E1F
:1008D0000A30006E003200321F0E00160050010F69
:1008E0000F6E0EC015F0166EECDD0A30006E003291
:1008F00000321F0E00160050010F0F6E176A166EA1
:10090000196A800E186E6BDE02C00FF001C00EF087
:100910000B5009240124016E000E0220036E0150C9
:1009200003C0F7FF02EC00F00E6E146EF8DD0B2A28
:10093000C9D7010E0A5C0E6E09C00FF0106E5EDEA4
:10094000958A83BA3DD00B6A0B50070832E30B50EF
:1009500009240E6E0A300F6E0F320F321F0E0F1663
:100960000EC015F00FC016F0ACDD0A30006E00327C
:1009700000321F0E001600C00FF0176A00C016F0FC
:10098000196A800E186E2BDE02C00FF001C00EF047
:100990000B5009240124016E000E0220036E015049
:1009A00003C0F7FF02EC00F00E6E146EB8DD0B2AE8
:1009B000CBD7010E0A240E6E09C00FF0106E1EDE9A
:1009C000958883B869D0010E095C0E6E0F6E0AC05F
:1009D00010F014DE080E09240E6E0A300F6E0F326E
:1009E0000F321F0E0F160EC015F00FC016F069DD86
:1009F0000A30006E003200321F0E001600C00FF0E9
:100A0000176A00C016F0196A800E186EE8DD02C081
:100A10000FF001C00EF0080E09240124016E000E33
:100A20000220036E015003C0F7FF02EC00F00E6ECF
:100A3000146E75DD080E09240E6E0A30006E003249
:100A400000321F0E00160050010F0F6E0EC015F081
:100A5000166E37DD0A30006E003200321F0E0016AF
:100A60000050010F0F6E176A166E196A800E186E0D
:100A7000B6DD02C00FF001C00EF0080E09240124FB
:100A8000016E000E0220036E015003C0F7FF02EC5E
:0C0A900000F00E6E146E43DDA2D60300D1
:020000040030CA
:0E00000023CE381E0087A1000FC00FE00F4076
:00000001FF
;PIC18F4550
;CRC=C67B  CREATED="20-abr-13 20:30"
