:10000000E6C000C1FFC0FEC0FDC0FCC0D0C2FAC047
:10001000F9C0F8C0F7C0F6C0F5C0F4C0F3C0F2C034
:10002000F1C0F0C0EFC022202055000057575023E8
:10003000636241241025357064000024442042226C
:1000400040527250027200000064007000000020F4
:10005000112440355560262270612470612160159D
:1000600071107461602465207132202525202531AE
:1000700020002020002064124210007070421240C4
:100080006120207554702575506565603444306575
:1000900055607464707464403455305575507222E4
:1000A0007011152055655044447057755057555080
:1000B0002555206564402557306565503471607260
:1000C00022205555705555205577505525505522AD
:1000D0002071247064446044211062226025000075
:1000E00000000F620000003570446560003430117C
:1000F000353000763012722000751744655020228A
:10010000202022264456502222200077500065509D
:100110000025200065640035310064400032600233
:100120007230005570005520005770005250005535
:10013000240062303262302222206232605A000093
:10014000025700F490B3A0D0F0E2D47066B2BAA126
:10015000A3AB94959595F590F10010223045506829
:10016000708A90ACB0CED0F20F1020304350667041
:100170008990ABB0CDD0F30E102F30405064708713
:1001800090AAB0CBD0F40D102E304F50F591F10164
:10019000112231435164718691A8B1CBD1F20F1174
:1001A0002131425163718591A6B1C8D1F30B112F52
:1001B00031415162718391A4B1C6D1F408112B3140
:1001C0004F518094F5A2F460F04050C0F4701124B7
:1001D0001FBECFE5D4E0DEBFCDBF10E0A0E6B0E0AB
:1001E000EAE9FCE002C005900D92A438B107D9F706
:1001F00011E0A4E8B0E001C01D92A831B107E1F719
:1002000008D249C5FDCE90936100809360000895A7
:100210001F93182FAA9AA89884EFC3D1812F829593
:100220008F70806BBED11F70812F806ABAD1A89A5F
:100230001F910895EF92FF920F931F93F62E042FB4
:10024000E22E182F110F1A5F000F095FAA9AA898C3
:1002500080EFA7D1812F8E70A4D112951F70812FAE
:1002600080619FD18F2D8F7080629BD1F694F69420
:10027000F694F6948F2D806394D185EF92D1802FE0
:100280008F708FD102950F70802F80618AD18E2D53
:100290008F70806286D1E694E694E694E6948E2D83
:1002A00080637FD1A89AAA981F910F91FF90EF9039
:1002B0000895482F262FBEDF85B38A7F85BB8091A6
:1002C00061006FD1809160006CD1A89A08959F92CF
:1002D000AF92BF92CF92DF92EF92FF920F931F9354
:1002E000CF93DF93D82E842F81528F3570F583E022
:1002F000489FE0011124CD53D040E62E93E0B92E63
:10030000BD0C9D2C9A9486E0A82EA60EFE01849129
:10031000CE2CC394FB2C082F1B2D00FF03C0812F74
:100320006C2DC7DF069511501915B9F700FF03C0F2
:100330008F2D6E2DBEDFFD1419F00695FA94F6CFC1
:100340002196F2E0EF0EEA1409F7DF91CF911F91A9
:100350000F91FF90EF90DF90CF90BF90AF909F9064
:100360000895FF920F931F93CF93DF93F82E062FDC
:10037000EA0110E008C0880F991F880F991F8F0DA0
:10038000602FA5DF1F5F812F90E0FE01E80FF91FAE
:100390004081442381F7DF91CF911F910F91FF900E
:1003A0000895BF92CF92DF92EF92FF920F931F9327
:1003B000082FF62ED42EB22E0150C02EC40E0F5F81
:1003C000802F4C2D2F2D36DF85B38A7F85BB10E023
:1003D00007C080916100E5D080916000E2D01F5F8E
:1003E0001D15B8F3FA94EF2CEB0CF394802F6E2DBF
:1003F0004C2D2E2D1FDF85B38A7F85BB10E007C0F3
:1004000080916100CED080916000CBD01F5F1D1520
:10041000B8F3802F6F2D402F2E2D0CDF85B38A7FF0
:1004200085BB10E007C080916100BBD08091600067
:10043000B8D01F5F1B15B8F38C2D6F2D4C2D2E2DB2
:10044000F9DE85B38A7F85BB10E007C0809161002B
:10045000A8D080916000A5D01F5F1B15B8F3A89AA3
:100460001F910F91FF90EF90DF90CF90BF90089574
:10047000EF92FF920F931F93E42EF22E482F4150DC
:100480004E0D262F21502F0DD5DE85B38A7F85BBDB
:1004900000E00AC08091610084D08091600081D02A
:1004A0001F5F1E15B8F30F5F0F1510F410E0F9CFA2
:1004B000A89A1F910F91FF90EF900895CF93DF932B
:1004C00080E060E044E62FE4B5DE85B38A7F85BB3B
:1004D000C0E0D0E08FEF65D08FEF63D021968FE141
:1004E000C039D807B9F7A89ADF91CF910895CF9373
:1004F000DF93A99880E29EE4FC013197F1F7A99A75
:100500000197F1F7AA9AA898C3E4D1E0FE0184917B
:1005100048D02196F1E0CE3CDF07C1F780ED97E0AF
:10052000FC013197F1F7A89A0197F1F7A89880EFAD
:1005300038D081E836D084EF34D083EB32D080EAF3
:1005400030D080EF2ED086E02CD080E12AD080E21F
:1005500028D080E326D085EF24D08FE022D08CE114
:1005600020D08FE21ED084E31CD0A89AAA98DF91F5
:10057000CF91089598E297BB87E084BB81E085BB6B
:1005800097BB80E288BB81E58DB9789481E08EBD10
:1005900089B7806189BF82EE94E09BBD8ABD789463
:1005A0000895C0988FB9779BFECFC09A08951F9287
:1005B0000F920FB60F9211248F93809117018F5FC6
:1005C00080931701809117018436E9F41092170186
:1005D000809184008F5F80938400809184008C33AD
:1005E00091F4809185008F5F8093850080918500D4
:1005F0008C3339F4809116018F5F8093160110922D
:100600008400109284008F910F900FBE0F901F9066
:1006100018953F924F925F926F927F928F929F9226
:10062000AF92BF92CF92DF92EF92FF920F931F9300
:10063000DF93CF93CDB7DEB72C970FB6F894DEBF1C
:100640000FBECDBF98E297BB87E084BB81E085BB3E
:1006500097BB80E288BB81E58DB9789481E08EBD3F
:1006600089B7806189BF82EE94E09BBD8ABD789492
:100670003EDF8BE2CDDD22DF80E09FE0C4DD84E061
:1006800062E042E650E06DDE80EF90E0BCDD83E0AA
:1006900068E048E522E0ECDE80E090E0B4DD84E054
:1006A0006DE04CE52BE37DDE81E08093F20080E895
:1006B0008093F50088E38093F9008FEF9FE0A3DD3E
:1006C00085E06EE04AE529E3D3DE8FEF90E09BDD25
:1006D000EE24FF24B5E0CB2E2DC0F801A3E0F69563
:1006E000E795AA95E1F7E253FF4F208130E0C5017D
:1006F0008E0D9F1D8770907002C0359527958A9545
:10070000E2F720FF05C08C2D6D2D43E023E0B0DE25
:10071000025E1F4F2EE130E0A20EB31E33E0D30E77
:1007200087E4D816D1F60894E11CF11CC30E9FE5AE
:10073000C91631F08701AA24BB24EEE0DE2ECDCF0E
:100740001B821C821D821E828FEF9FE05CDD82E097
:1007500069E440E226E08CDE80E090E054DD8091A8
:1007600016016AE079D164E677D1905D82E069E4B0
:10077000492FADDD809116016AE06ED1905D86E073
:1007800069E4492FA4DD8AE069E44AE3A0DD8091B1
:1007900085006AE061D164E65FD1905D8EE069E436
:1007A000492F95DD809185006AE056D1905D82E108
:1007B00069E4492F8CDD86E169E44AE388DD8091B4
:1007C00084006AE049D164E647D1905D8AE169E43A
:1007D000492F7DDD809184006AE03ED1905D8EE1FD
:1007E00069E4492F74DDCC24DD2471E6F72E8B817A
:1007F0009C81AD81BE810C2C04C0B695A7959795C0
:1008000087950A94D2F78C010170107001151105BB
:1008100019F08FE090E002C08FEF9FE0F4DC8F2DA5
:100820006CE443E023E024DEC601837090700397FC
:1008300069F4012B19F08FE99BE002C08DED9FE078
:10084000E2DC8F2D6CE443E023E012DE0894C11C4F
:10085000D11CADEFFA0EB8E2FB1649F6AA24BB2470
:1008600065E0362EC6C0F401EA0DFB1DFA83E9836C
:10087000DD24EE24FF2493012E5E3F4F38872F8323
:100880003CC031E0E31619F48B85813041F18F8152
:100890009885AB85BC858A0F9B1F63E170E0E8D02B
:1008A0009C0155E0880F991F5A95E1F7220F331FDD
:1008B000821B930B800F911FFC0123E0F695E795B7
:1008C0002A95E1F7E253FF4F208130E08770907066
:1008D00002C0359527958A95E2F720FDD394EB85E4
:1008E000FC853196FC87EB87339759F60894E11C19
:1008F000F11CF3E0EF16F10459F089859A858E0D0D
:100900009F1D6EE170E0B4D08C011C861B86B9CFB0
:10091000920193E0369527959A95E1F749815A819E
:1009200047705070F901E253FF4F808190E0042E30
:1009300002C0959587950A94E2F780FF20C08EEF5C
:10094000D80EF901EA57FF4F91E09D1550F021E0D4
:1009500030E002C0220F331F4A95E2F78081822BDC
:1009600031C081E090E002C0880F991F4A95E2F7FC
:1009700080952081822380838FEF9FE012C0F90150
:10098000EA57FF4FA3E0DA1699F421E030E002C005
:10099000220F331F4A95E2F78081822B80838FEFED
:1009A00090E031DC832D6C2D43E023E061DD0BC052
:1009B00081E090E002C0880F991F4A95E2F7809588
:1009C0002081822380830894611C711CB3E0CB0ECC
:1009D000EEE1F0E04E0E5F1E8E0E9F1EF7E4CF1686
:1009E00009F041CF0894A11CB11C3B0E2FE5321633
:1009F00061F02501662477248EE0C82E882499248E
:100A0000C5014D969A8789872ECF829B0AC006E83A
:100A100010E09FD0D8018D938D01B0E00E3C1B07F4
:100A2000C1F720E030E0F901E253FF4FD901AA57A6
:100A3000BF4F8C9180832F5F3F4F2834310599F74A
:100A40008B819C81AD81BE810196A11DB11D8B83DF
:100A50009C83AD83BE8378CE991B79E004C0991F37
:100A6000961708F0961B881F7A95C9F78095089508
:100A700097FB092E07260AD077FD04D00CD006D0AC
:100A800000201AF4709561957F4F0895F6F79095C0
:100A900081959F4F0895AA1BBB1B51E107C0AA1F58
:100AA000BB1FA617B70710F0A61BB70B881F991F0F
:100AB0005A95A9F780959095BC01CD010895A0E0C5
:100AC000B0E0E4E6F5E096C0EC01A880B980CA8009
:100AD000DB80A114B104C104D10441F484E2A82E46
:100AE00089EDB82E8BE5C82E87E0D82EC601B5015A
:100AF0002DE133EF41E050E05AD027EA31E440E005
:100B000050E036D07B018C01C601B5012DE133EFF9
:100B100041E050E04CD0CA01B9012CEE34EF4FEF68
:100B20005FEF26D06E0D7F1D801F911F97FF04C0C1
:100B30006150704080409048688379838A839B83AA
:100B40009B013F77C901CDB7DEB7EAE06FC0B7DFE1
:100B5000089580E890E0B3DF0895A0E0B0E08093CE
:100B6000800090938100A0938200B0938300089549
:100B7000629FD001739FF001829FE00DF11D649F81
:100B8000E00DF11D929FF00D839FF00D749FF00D0D
:100B9000659FF00D9927729FB00DE11DF91F639FAE
:100BA000B00DE11DF91FBD01CF011124089597FB80
:100BB000092E05260ED057FD04D04BD00AD0001CBC
:100BC00038F450954095309521953F4F4F4F5F4FEA
:100BD0000895F6F790958095709561957F4F8F4FAA
:100BE0009F4F08952F923F924F925F926F927F9204
:100BF0008F929F92AF92BF92CF92DF92EF92FF922D
:100C00000F931F93CF93DF93CDB7DEB7CA1BDB0BD8
:100C10000FB6F894DEBF0FBECDBF09942A8839887D
:100C200048885F846E847D848C849B84AA84B98484
:100C3000C884DF80EE80FD800C811B81AA81B98190
:100C4000CE0FD11D0FB6F894DEBF0FBECDBFED01A4
:100C50000895A1E21A2EAA1BBB1BFD010DC0AA1FFD
:100C6000BB1FEE1FFF1FA217B307E407F50720F015
:100C7000A21BB30BE40BF50B661F771F881F991F90
:100C80001A9469F760957095809590959B01AC01D9
:0A0C9000BD01CF010895F894FFCFD5
:100C9A000F00436F6E77617927732047616D652076
:100CAA006F66204C69666500E1E2E3FF011D1E1FC5
:040CBA000100000035
:00000001FF
