:1000000000308A00192800002A3084008313000879
:10001000031918280130F800F701F70B0D28F80B29
:100020000C284A30F700F70B13281628800B0A28F3
:100030004128840183131F30830507309F00A201EC
:100040006430A3002930A4001930A5001A30A6009E
:100050003230A7003430A8002C30A900A1012108BB
:10006000053C031C43282430210784008313000827
:10007000AA008316860183122A0886002308AA0094
:100080000428A10A2F28A20A2208043C03184F289A
:10009000A2012308063C03184F280430A3022E288F
:0200A0006300FB
:02400E00623F0F
:00000001FF
;PIC16F628A
