:1000000004308A002F2C00000A108A100A1182077F
:1000100028340C34013406340C104937E931E93006
:100020006E326F172E1700000C28F237E2306E3256
:100030006F10D332EE396F398A2A6C3AF230F337C7
:10004000EE34E33700000C2AE9326D386F10BA1233
:10005000CC3A2005C434733A6137E33461103D1063
:10006000252675002E3084008313000803194528C7
:100070000630F800F701F70B3B28F80B3A287B30E5
:10008000F700F70B4128800B38280800350EF039AF
:10009000F7000F300605770486000000061583166A
:1000A00006110330F700F70B53288312061183164D
:1000B0000611831208000608F700060E0F39F80033
:1000C0000800831606110610861083120610831688
:1000D00006100F300605F03886008312861483164A
:1000E0008610000083120615831606110000831285
:1000F0005B207808B50006118316061100008312F4
:1001000006158316061184288528000083125B20BB
:100110007808B4000611831606110F300605860014
:100120008312350EF700F030F70577083404F80035
:100130007808B400B41F9E2883166928B208031DEE
:10014000A3280610A42806148316061000008312A4
:10015000861083168610000083120611831606117E
:100160008312330EB4000F30B4053408B5004620B6
:1001700033080F39B400B500462008000F3083164D
:1001800006058600061106108610831206108316D7
:1001900006108312861083168610831206118316AA
:1001A00006110F308312AE0032200130A400240863
:1001B000033C031CE5280330B5004620B50146206A
:1001C0000530AE003220A40AD7280230B500462000
:1001D000B50146200530AE003220A4012408033CBE
:1001E000031CFB2824080420A500B2012508B30045
:1001F0006120A40AEE288A110A12442C2F0B01292F
:1002000004294030B0000529B00101302E02B007AA
:1002100030088038B100B2013108B3006120080015
:100220002D08073A03191E290B3A03192329063A08
:1002300003192B29023A0319312936290130AE005E
:10024000AF00FE203C29B2010130B3006120023032
:10025000AE0032203C290130AE000230AF00FE205B
:100260003C29B2011030B30061203C290130B200BA
:100270002D08B30061203C290800831603178C1752
:100280000C140000000083120C087F390319812927
:100290000313A40003170D080313A50003170F0889
:1002A0000313A6002408AD001021250803178D00B4
:1002B0000313260803178F0083168C170C140000F5
:1002C000000083120C0D0E0D7F39031981290313D1
:1002D000A40003170D080313A50003170F08031349
:1002E000A6002408AD001021250803178D00031374
:1002F000260803178F008D0A03198F0A03133D295F
:100300000317031308008E30F7002508F8002408AF
:10031000F900FA01F808031D97297908F800F90196
:100320000830F702F808031D9729F7019F290310E9
:10033000F81B9E29F90DF80DF7039729F8138A1178
:100340000A128B2C24080319122AAC00280803195E
:10035000122AAC070318B3297F30AC02031C122AFF
:100360000319122AB7298130AC070318122A2C0866
:10037000F700F801F901FA012508B000B0172608C6
:10038000AF002708AE001830AC00AD012E1CE029EC
:100390002B08FA07031CD229F90A031DD229F80AEF
:1003A0000319AD172A08F907031CD929F80A0319FC
:1003B000AD172908A600A6172608F8070318AD17D9
:1003C000AD0DF80CF90CFA0CB00CAF0CAE0C031020
:1003D000AC0BC5290130F7070318122AF81BF729BF
:1003E000B00DFA0DF90DF80DF7030319122AB01F1D
:1003F000082AFA0A031D082AF90A031D082AF80A1E
:10040000031D082AF80CF90CFA0CF70A0319122A32
:100410002508AD002908AD06AD1F102AF817162AC9
:10042000F813162AF701F801F901FA018A110A12E4
:100430009C2C80308318AD06B201B3012908B100AD
:100440002D08B10628080319092BB000F7002C0865
:100450000319122BB0020319AE2A031C6C2A2D08B3
:10046000B600B6172E08B5002F08B400B30103106C
:10047000B60CB50CB40CB30CB00B362AB11F432A22
:100480003214262B3210301032162B308400831396
:100490003B2B3212B11B562A301C612AB60CB50C0C
:1004A000B40CB30CF70A0319212B612AB61B642A7A
:1004B0000310B30DB40DB50DB60DF7030319212BC1
:1004C000562A3217CE2A32132908B100B11F6A2AE0
:1004D000B6171A2BB6131A2B2C08B000F7002808F1
:1004E000B0022908B600B6172A08B5002B08B400D8
:1004F000B3010310B60CB50CB40CB30CB00B782AD6
:10050000B11F852AB214262BB2103010B2162F302C
:10051000840083133B2BB212B11B982A301CA32AF0
:10052000B60CB50CB40CB30CF70A0319212BA32A93
:10053000B61BA62A0310B30DB40DB50DB60DF70307
:100540000319212B982AB217CE2AB2132D08B10015
:10055000B11FAC2AB6171A2BB6131A2B2D08B600EA
:10056000B6172E08B5002F08B400B11FBB2AB6136A
:100570003215262B3211B30130102B308400831337
:100580003B2BB11BE42A2908B100301CCE2AB60C43
:10059000B50CB40CB30CF70A0319212BB31FDF2AD7
:1005A000B40A031DDF2AB50A031DDF2AB60A031D9C
:1005B000DF2AB60CB50CB40CF70A0319212B321B39
:1005C000632AB21BA52A032B8030B606B61FEC2A7D
:1005D000262B2D08B100F92A2908B100B608031D01
:1005E000F92AB508031DF92AB408031DF92AF701F1
:1005F0001A2BB61B032B0310B30DB40DB50DB60D9E
:10060000F70BF92A212BB11F072BB6171A2BB6139C
:100610001A2B2C08F7002D08B6002E08B5002F085D
:10062000B4001A2B2808F7002908B6002A08B500DC
:100630002B08B4003608F8003508F9003408FA0031
:10064000592BF701F801F901FA01592BB301B4094B
:10065000B509B609B309B30A031D342BB40A031D47
:10066000342BB50A0319B60A3218422AB218842A62
:100670003219BA2AE92A0008B407031C452BB50A27
:10068000031D452BB60A0319301484030008B5076F
:10069000031C4D2BB60A0319301484030008801F75
:1006A000803AB60703183014321A492AB21A8B2A34
:1006B000C12A8A110A12B62C8E30F7002408F702DC
:1006C0002508F9002608F800F917F7080319732B15
:1006D0000310F908031D6F2BF8080319732BF90C8D
:1006E000F80CF70B682BA51F7A2BF809F909F80A03
:1006F0000319F90A8A110A12BF2C831603178C17E3
:100700000C14000000000318AC2B83120C087F3976
:100710000313A50003170D080313A60003170F0802
:100720000313A7002508AD001021260803178D002C
:100730000313270803178F0083168C170C1400006F
:10074000000083120313A40BA62BA92B83160317F7
:10075000AC2BCB2B8316031783120C0D0E0D7F3998
:100760000313A50003170D080313A60003170F08B2
:100770000313A7002508AD001021260803178D00DC
:100780000313270803178F008D0A03198F0A03101C
:100790000313A40B7D2B0800AC010408AB002C1044
:1007A000831B2C14250EF038A700A707E23EA800F3
:1007B000323EAA0025080F39A807A807AA07E93E74
:1007C000A900A907A907240E0F39A907AA07A90D8F
:1007D000AA0DAA09AA0D24080F39AA07A70D0730E8
:1007E000A6000A30AA07A903031CF22BA907A80335
:1007F000031CF62BA807A703031CFA2BA707A603C5
:10080000031CFE2B26308400831307302B052B138B
:1008100084072A30040203192B170008F700031D70
:10082000192C2B1B192C2B1A2B2CAB19192C203003
:100830001C2CAB152B123030F707A5010408A400BF
:100840002510831B25147708AD001021240884008F
:10085000831325188317840A2B1F092C0800840191
:1008600083131F308305831603170908C0398900D5
:1008700003131F129F120030031788008312870191
:10088000880189010313BE280C3003178D00003046
:100890008F0003133D210430A400FA30AE00322053
:1008A000A40B4D2C143003178D0000308F00031360
:1008B0003D210430A400FA30AE003220A40B5B2CA2
:1008C0003530900083168810831288142130F70089
:1008D000F70B682C8316881083128810831608146F
:1008E0008312081C6E2C8F018E018316081483124C
:1008F0000818752C0F08FA000E08F7000F087A0286
:10090000031D7A2C7708A2007A08A3002308A5000B
:100910002208A40083297A08A7007908A60078088D
:10092000A5007708A4004230AB006030AA00653013
:10093000A9007930A800A2297708A4007808A500AA
:100940007908A6007A08A70083107A08AB00790816
:10095000AA007808A9007708A8006D30AF00E7303A
:10096000AE000B30AD007F30AC00192A7A08A7002A
:100970007908A6007808A5007708A4005C2B790800
:10098000A1007808A000233003178D0000308F00ED
:10099000031009300313A4007D23103084002308C2
:1009A000A5002208A400CC23293003178D000030B5
:1009B0008F0003100E300313A4007D231030840039
:1009C0002108A5002008A400CC230430A400FA309C
:0C09D000AE003220A40BE72C622C630068
:04400E00B22CFF3F92
:00000001FF
;PIC16F887
;CRC=B746  CREATED="06-mai-13 14:43"
