:1000000000308A008B280000FF00030E8301A1004E
:100010000A08A0008A010408A2007708A300780853
:10002000A4007908A5007A08A600831383128B1E0A
:100030001B280B192C28220884002308F700240809
:10004000F8002508F9002608FA0020088A00210E89
:100050008300FF0E7F0E09008A110A122F28A70ABB
:1000600027082D3C031D3A28A7018316851002306E
:10007000831285060B118A110A121B28B10131085F
:100080000F3C031C6B28A8112808831687008312D5
:1000900087112F080139B200B301B208031D5A2895
:1000A000B308031D5A2828122808831687008312D4
:1000B0000712602828122808831687008312071663
:1000C000A811280883168700831287150310B00C27
:1000D000AF0CB10A3F282812280883168700831224
:1000E00007168A110A12A7282F30840083130008EC
:1000F000031988280530F800F701F70B7D28F80B65
:100100007C282E30F700F70B83288628800B7A286E
:100110008A110A12AA28840183131F308305FF3035
:10012000A80083161F149F141F159F110108C039C2
:10013000073881001F149F141F159F1183121F1071
:100140008B16C0308B04B001EA30AF003E2864301B
:08015000AF007428A32863002E
:02400E003A3D39
:00000001FF
;PIC16F876
;CRC=6EB6  CREATED="19-mai-14 21:24"
