:1000000003308A00762B00000A108A100A110B3E7A
:1000100003188A0A820000340034003400340034AB
:10002000003400345F3400340034003403340034CE
:100030000334003414343E3414343E341434243441
:100040002A347F342A341234433433340834663447
:100050006134363449345534223450340034053454
:1000600003340034003400341C342234413400346E
:100070000034413422341C340034143408343E3407
:1000800008341434083408343E3408340834003456
:100090005034303400340034083408340834083420
:1000A00000340034603460340034003420341034C0
:1000B0000834043400343E34513449343E3400347E
:1000C000043402347F340034003400346134513459
:1000D00049344634003441344934493436341834D0
:1000E000143412347F34003400342734453445341A
:1000F00039343E3449344934323400340034013424
:1001000071340934073436344934493436340034D0
:100110002634493449343E340034003436343634DD
:10012000003400340034563436340034003408349B
:100130001434223441340034143414341434143458
:10014000003400344134223414340834023401348D
:100150005134093406343E344134593455345E3414
:100160007E34093409347E3400347F3449344934D0
:10017000363400343E3441344134223400347F3448
:10018000413441343E3400347F34493449344134BD
:1001900000347F3409340934013400343E344134AE
:1001A00049343A3400347F34083408347F3400341E
:1001B000003441347F3441340034303440344034EE
:1001C0003F3400347F3408341434633400347F34D3
:1001D00040344034003400347F3402340C34023470
:1001E0007F347F340234043408347F343E34413465
:1001F00041343E3400347F34093409340634003449
:100200001E34213421345E3400347F3409340934FF
:10021000763400340A148A100A11820726344934CD
:10022000493432340034003401347F340134003432
:100230003F34403440343F3400341F3420344034A1
:1002400020341F347F342034103420347F34413440
:1002500022341C34223441340734083470340834D6
:1002600007346134513449344734003400347F3426
:10027000413400340034023404340834103420345F
:100280000034003441347F34003404340234013407
:1002900002340434403440344034403400340034B8
:1002A00001340234043400343834443444347C346B
:1002B00000347F34443444343834003438344434E3
:1002C0004434443400343834443444347F340034C7
:1002D00038345434543418340034003404347E3404
:1002E000053400340834543454343C3400347F34FE
:1002F0000834043478340034003400347A34003460
:1003000000342034003444343D3400347E3410341E
:10031000283444340034003441347F3440340034D1
:100320007C3404347834043478347C340434043435
:1003300078340034383444344434383400347C3431
:1003400014341434083400340834143414347C3431
:10035000003400347C340834043400340834543419
:10036000543420340034003404343F3444340034F2
:1003700000343C34403420347C341C342034403449
:1003800020341C343C344034303440343C34443425
:1003900028341034283444340C34503450343C3431
:1003A00000340034643454344C34003400340834A1
:1003B000363441344134003400347F340034003466
:1003C00041344134363408340034023401340234C8
:1003D000043402340A148A100A1182075434653432
:1003E00073347434653420344C344334443420340E
:1003F000313432343834783436343434003483167B
:100400008613831286130830AE00AE080319212A22
:1004100083160613831206132D088039031D152A2F
:100420008316861283128612192A83168612831265
:10043000861683160613831206170310AD0DAE033E
:10044000052A831686138312861708008316051063
:10045000831205102C08AD00FF2108002E08F801BA
:100460002D020318362A2D08F700422AF70108301A
:10047000AF00AD0DF70D2E0877020318F700F80D49
:10048000AF0B392A0800AA012908B038AB00AC002C
:10049000262228080F39AB00AC002622280EF700D0
:1004A0000F30F70577081038AB00AC00262201307A
:1004B0002807AC00AD000630AE002E227808AA0056
:1004C00001302807AC00AD000630AE002E227708C0
:1004D000031DAA0A2908A0002A08A1002808A200D2
:1004E000080083160510831205142708AD00FF21AC
:1004F000A20A2208A8002008A900432208008316A7
:100500008613831286138316851083128510053097
:10051000A300233084008313000803199D2A0130AF
:10052000F800F701F70B922AF80B912A4A30F700EE
:10053000F70B982A9B2A800B8F2A8316851083122B
:100540008514A230AC002622A630AC002622C8308A
:10055000AC002622A030AC0026224030AC0026227F
:100560002C30AC0026222E30AC0026222F30AC00DE
:100570002622BA2ABB2A00002630AC002622A3017C
:100580002308073C031CD42AA40124087F3C031C35
:10059000D22A2408A8002308A9004322A701712217
:1005A000A40AC52AA30AC02AA801A9014322AF3080
:1005B000AC002622A430AC0026228130AC002622DA
:1005C0001A30AC002622802BF701F801280803100E
:1005D0002918F707F70CF80CA918F707F70CF80C0F
:1005E0002919F707F70CF80CA919F707F70CF80CFD
:1005F000291AF707F70CF80CA91AF707F70CF80CEB
:10060000291BF707F70CF80CA91BF707F70CF80CD8
:1006100008002108153C0318222B2008063C031C67
:100620001E2B01302007B038A600AC002622AC01FA
:1006300026221030AC0026220130A0070130A10094
:10064000A201232BA10A2408203C031D312BA50164
:100650002508013C031C302BA7017122A50A282B79
:10066000732BA5012508043C031C732B2408523C62
:10067000031C562B20302402A700A8000530A90037
:10068000E422250878070420F800F8080319552B00
:1006900020302402A700A8000530A900E422250884
:1006A00078070420A600A7007122712B5330240282
:1006B000A700A8000530A900E422250878070A2130
:1006C000F800F8080319712B53302402A700A80082
:1006D0000530A900E422250878070A21A600A70012
:1006E0007122A50A322BA7017122872B8401831363
:1006F0001F308305A001A101A20107309F007F2ABE
:10070000A3012308EA21A30AF700A400092B103053
:0A0710002302031D812B8B2B6300D5
:02400E00213F50
:00000001FF
;PIC16F628A
;CRC=436F  CREATED="25-out-12 11:50"
