:1000000006308A003F2E00000A108A100A110B3EAB
:1000100003188A0A820000340034003400340034AB
:10002000003400345F3400340034003403340034CE
:100030000334003414343E3414343E341434243441
:100040002A347F342A341234433433340834663447
:100050006134363449345534223450340034053454
:1000600003340034003400341C342234413400346E
:100070000034413422341C340034143408343E3407
:1000800008341434083408343E3408340834003456
:100090005034303400340034083408340834083420
:1000A00000340034603460340034003420341034C0
:1000B0000834043400343E34513449343E3400347E
:1000C000043402347F340034003400346134513459
:1000D00049344634003441344934493436341834D0
:1000E000143412347F34003400342734453445341A
:1000F00039343E3449344934323400340034013424
:1001000071340934073436344934493436340034D0
:100110002634493449343E340034003436343634DD
:10012000003400340034563436340034003408349B
:100130001434223441340034143414341434143458
:10014000003400344134223414340834023401348D
:100150005134093406343E344134593455345E3414
:100160007E34093409347E3400347F3449344934D0
:10017000363400343E3441344134223400347F3448
:10018000413441343E3400347F34493449344134BD
:1001900000347F3409340934013400343E344134AE
:1001A00049343A3400347F34083408347F3400341E
:1001B000003441347F3441340034303440344034EE
:1001C0003F3400347F3408341434633400347F34D3
:1001D00040344034003400347F3402340C34023470
:1001E0007F347F340234043408347F343E34413465
:1001F00041343E3400347F34093409340634003449
:100200001E34213421345E3400347F3409340934FF
:10021000763400340A148A100A11820726344934CD
:10022000493432340034003401347F340134003432
:100230003F34403440343F3400341F3420344034A1
:1002400020341F347F342034103420347F34413440
:1002500022341C34223441340734083470340834D6
:1002600007346134513449344734003400347F3426
:10027000413400340034023404340834103420345F
:100280000034003441347F34003404340234013407
:1002900002340434403440344034403400340034B8
:1002A00001340234043400343834443444347C346B
:1002B00000347F34443444343834003438344434E3
:1002C0004434443400343834443444347F340034C7
:1002D00038345434543418340034003404347E3404
:1002E000053400340834543454343C3400347F34FE
:1002F0000834043478340034003400347A34003460
:1003000000342034003444343D3400347E3410341E
:10031000283444340034003441347F3440340034D1
:100320007C3404347834043478347C340434043435
:1003300078340034383444344434383400347C3431
:1003400014341434083400340834143414347C3431
:10035000003400347C340834043400340834543419
:10036000543420340034003404343F3444340034F2
:1003700000343C34403420347C341C342034403449
:1003800020341C343C344034303440343C34443425
:1003900028341034283444340C34503450343C3431
:1003A00000340034643454344C34003400340834A1
:1003B000363441344134003400347F340034003466
:1003C00041344134363408340034023401340234C8
:1003D000043402345221CA2F4526C52154294F27FF
:1003E000C9215300D620CE24DA22A0264129C920D3
:1003F00020224510CA22D32A5300831608128312E2
:100400000812831688138312881783160813831221
:1004100008138316860183124F088600831608127C
:100420008312081608008316881283128812831616
:1004300088138312881783160813831208134E0833
:10044000CF00FD2108005008F8014F0203182B2AA5
:100450004F08F700372AF7010830D100CF0DF70D0C
:10046000500877020318F700F80DD10B2E2A080068
:10047000CC014B08B038CD00CE0013224A080F390A
:10048000CD00CE0013224A0EF7000F30F705770893
:100490001038CD00CE00132201304A07CE00CF0025
:1004A0000630D00023227808CC0001304A07CE0065
:1004B000CF000630D00023227708031DCC0A4B085A
:1004C000A0004C08A1004A08A20008008316881268
:1004D00083128816831688138312881783160813CD
:1004E000831208134908CF00FD21A20A2208CA007E
:1004F0002008CB00382208002A308400831300082B
:1005000003198F2A0330F800F701F70B852AF80B3F
:10051000842A5130F700F70B8B2A800B822A0800BF
:100520008316081283120812831688118312881109
:100530000330F700F70B9A2A9D2A8316881183123D
:1005400088150330F700F70BA32AA62AAF30CE0098
:1005500013224030CE001322B030CE0013221030D0
:10056000CE001322CE011322C830CE001322A030B9
:10057000CE001322A630CE001322A430CE001322C8
:10058000A230CE0013222C30CE0013222E30CE000B
:1005900013222F30CE0013222630CE0013228130BA
:1005A000CE0013221730CE001322AA012A08073CDE
:1005B000031CEA2AAB012B087F3C031CE82A2B080A
:1005C000CA002A08CB003822C9016622AB0ADB2AFE
:1005D000AA0AD62ACA01CB0138220130AA007C22FD
:1005E0008A110A12552EF701F80145080310461822
:1005F000F707F70CF80CC618F707F70CF80C4619B4
:10060000F707F70CF80CC619F707F70CF80C461AA1
:10061000F707F70CF80CC61AF707F70CF80C461B8F
:10062000F707F70CF80CC61BF707F70CF80C0800D7
:100630002108153C0318312B2008063C031C2D2BE8
:1006400001302007B038AF00CE001322CE011322B4
:100650001030CE0013220130A0070130A100A2010A
:10066000322BA10A2D08203C031D402BAE012E0881
:10067000013C031C3F2BC9016622AE0A372B822B9B
:10068000AE012E08043C031C822B2D08523C031C97
:10069000652B20302D02B000C5000530C600F322C6
:1006A0002E0878070420F800F8080319642B20307E
:1006B0002D02B000C5000530C600F3222E087807D1
:1006C0000420AF00C9006622802B53302D02B000F9
:1006D000C5000530C600F3222E0878070A21F8006D
:1006E000F8080319802B53302D02B000C5000530E7
:1006F000C600F3222E0878070A21AF00C90066223F
:10070000AE0A412BC90166220800831603178C1715
:100710000C140000000083120C087F390319C92B48
:100720000313AA0003170D080313AB0003170F08E8
:100730000313AC002A08AD0018232B0803178D0003
:1007400003132C0803178F0083168C170C1400005A
:10075000000083120C0D0E0D7F390319C92B0313F2
:10076000AA0003170D080313AB0003170F080313A8
:10077000AC002A08AD0018232B0803178D000313C3
:100780002C0803178F008D0A03198F0A0313852B7A
:10079000031703130800C70144087F3C031CD32B35
:1007A00045083F3C031C2B2C471445080739F8002B
:1007B000F8080319DF2B0310C70DF80BDB2B4708D4
:1007C000C800450CC900C90CC90C1F30C905440834
:1007D000CA004908CB003822E030CE001322FF3097
:1007E0008316860008128312081283168812831259
:1007F00088168316881383128813831608138312AE
:1008000008178316081283120816062C831608127E
:10081000831208128316881283128816831688138F
:10082000831288138316081383120817FF30831668
:10083000860083120608F800212C83160812831202
:1008400008167808C704C608031D282C4808C702E4
:100850004708C9006622080036083802C400440868
:10086000C41F342C4408003CBF0037083902C400C0
:100870004408C41F3D2C4408003CC0003608BB009F
:100880003708BC00360838020318492CFF30BD0079
:100890004B2C0130BD00370839020318522CFF30B1
:1008A000BE00542C0130BE004008803AF7003F08DB
:1008B000803A770203195E2C0318AC2C0230C50075
:1008C0004008C600F3223F087802FA01F700F71B40
:1008D000FA03C1007A08C200C301BF1BAB2C430856
:1008E0003F02031CAB2C3B08C4003C08C5003A087F
:1008F000C600CB23C21F8E2C0230C5004008C600A4
:10090000F3227808FA01F700F71BFA03C1077A0807
:1009100003187A0FC2073D08BB07A92C0230C50097
:100920004008C600F3227808C4000230C5003F0822
:10093000C600F32278084402FA01F700F71BFA0315
:10094000C1077A0803187A0FC2073D08BB073E08A3
:10095000BC07C30A6D2CF92C0230C5003F08C60045
:10096000F32240087802FA01F700F71BFA03C100EE
:100970007A08C200C301C01BF92C43084002031CC3
:10098000F92C3B08C4003C08C5003A08C600CB233C
:10099000C21FDC2C0230C5003F08C600F3227808D5
:1009A000FA01F700F71BFA03C1077A0803187A0F58
:1009B000C2073E08BC07F72C0230C5003F08C6003E
:1009C000F3227808C4000230C5004008C600F322B4
:1009D00078084402FA01F700F71BFA03C1077A0806
:1009E00003187A0FC2073D08BB073E08BC07C30ABD
:1009F000BB2C0800AE0803191C2D2D082B02031870
:100A0000062D2B08B0002D08B1000A2D2D08B000CE
:100A10002B08B10030083102031C1B2D2A08B60038
:100A20003008B7002C08B8003008B9002F08BA0009
:100A30002C24B00A0A2D482D2A08B6002B08B7002E
:100A40002C08B8002B08B9002F08BA002C242A085B
:100A5000B6002D08B7002C08B8002D08B9002F08E3
:100A6000BA002C242A08B6002B08B7002A08B800C0
:100A70002D08B9002F08BA002C242C08B6002B082A
:100A8000B7002C08B8002D08B9002F08BA002C2494
:100A90000800AF012C08B0002C08013CB100AD08E3
:100AA0000319AF2D2F082A02B20030082B07B3001C
:100AB0002F082A07B40030082B07B5003208B6000B
:100AC0003308B7003408B8003508B9002E08BA005A
:100AD0002C242F082A02B20030082B02B3002F0862
:100AE0002A07B40030082B02B5003208B6003308DC
:100AF000B7003408B8003508B9002E08BA002C2415
:100B000030082A02B2002F082B07B30030082A074A
:100B1000B4002F082B07B5003208B6003308B70021
:100B20003408B8003508B9002E08BA002C24300863
:100B30002A02B2002F082B02B30030082A07B400A3
:100B40002F082B02B5003208B6003308B70034086E
:100B5000B8003508B9002E08BA002C24172E2A0830
:100B60002F07B2002B083007B3003208C400330847
:100B7000C5002E08C600CB232A083007B2002B0878
:100B80002F07B3003208C4003308C5002E08C60082
:100B9000CB232F082A02B2002B083007B3003208FB
:100BA000C4003308C5002E08C600CB2330082A0233
:100BB000B2002B082F07B3003208C4003308C50069
:100BC0002E08C600CB232A083007B2002F082B02BC
:100BD000B3003208C4003308C5002E08C600CB237A
:100BE0002A082F07B20030082B02B3003208C400D5
:100BF0003308C5002E08C600CB232F082A02B200F6
:100C000030082B02B3003208C4003308C5002E0898
:100C1000C600CB2330082A02B2002F082B02B300F3
:100C20003208C4003308C5002E08C600CB23B11F0C
:100C3000252E2F08AF0AB2000230C5003208C600C8
:100C4000F3227808033EB107342E2F08AF0AB20012
:100C50003008B0033202B2000230C5003208C600CC
:100C6000F3227808053EB1072F08803AF7003008D4
:100C7000803A770203194F2D031C4F2D0800840181
:100C800083131F308305A001A101A20183161F1445
:100C90009F141F159F1107309C008312A301A4010C
:100CA0008316081183120815902A0A30CA000430EE
:100CB000CB003822EA3003178D0001308F00031378
:100CC0008523A90129087F3C031C722E2908C40032
:100CD0002330C5000130C600CB231430AA007C228B
:100CE000A90A622E0A30CA000530CB003822F23041
:100CF00003178D0001308F00031385230A30AA00EB
:100D00000230AB007630AC003C30AD00AE010130BB
:100D1000AF00FA241430AA007C224030AA0014301C
:100D2000AB000F30AC000130AD00AE0049251430EF
:100D3000AA007C224030AA002030AB001930AC0061
:100D4000AD010130AE0049251430AA007C223C30B0
:100D5000AA001430AB006430AC002D30AD00AE0101
:080D60000130AF00FA2463002A
:02400E00323F3F
:00000001FF
;PIC16F877A
;CRC=1195  CREATED="19-fev-13 21:05"
