:1000000000308A0097280000FF00030E8301A10042
:100010000A08A0008A010408A2007708A300780853
:10002000A4007908A5007A08A600831383128B1E0A
:100030001B280B192C28220884002308F700240809
:10004000F8002508F9002608FA0020088A00210E89
:100050008300FF0E7F0E09008A110A1252280A102F
:100060008A100A118207BF348634DB34CF34E63479
:10007000ED34FD348734FF34E7342B08F8012A02CD
:10008000031845282A08F7005128F7010830AC006A
:10009000AA0DF70D2B0877020318F700F80DAC0B2B
:1000A000482808002708AA000A30AB003D2078083D
:1000B0002F20AA008316860183122A088600831641
:1000C00005108312051483168510831285102708E6
:1000D000AA000A30AB003D2077082F20AA00831623
:1000E000860183122A0886008316851083128514E0
:1000F00083160510831205100B118A110A121B2892
:100100002930840083130008031994280130F80073
:10011000F701F70B8928F80B88284A30F700F70B0E
:100120008F289228800B86288A110A12B22884010F
:1001300083131F308305A70183161F149F141F15F7
:100140009F1107309C00C03083128B048316010876
:10015000C0390638810083128B160430A800FA30AB
:10016000A9008028A80BAF28A70A2708633C031C16
:06017000A701AD286300A9
:02400E00313F40
:00000001FF
;PIC16F877A
;CRC=C62C  CREATED="08-jun-12 21:34"
