:1000000004308A00822C0000FF00030E8301A1004F
:100010000A08A0008A010408A2007708A300780853
:10002000A4007908A5007A08A600831383128B1E0A
:100030001B280B192C28220884002308F700240809
:10004000F8002508F9002608FA0020088A00210E89
:100050008300FF0E7F0E09008A110A12182A0A1067
:100060008A100A11363E03188A0A820000340034CE
:10007000003400340034003400345F340034003481
:100080000034033400340334003414343E34143464
:100090003E34143424342A347F342A341234433422
:1000A00033340834663461343634493455342234B8
:1000B00050340034053403340034003400341C342C
:1000C0002234413400340034413422341C340034AE
:1000D000143408343E3408341434083408343E34BC
:1000E00008340834003450343034003400340834D8
:1000F0000834083408340034003460346034003488
:100100000034203410340834043400343E34513484
:1001100049343E340034043402347F340034003433
:10012000003461345134493446344134493449341B
:10013000363400341834143412347F340034273405
:1001400045344534393400343E344934493432344A
:1001500000347134093409340734003436344934F6
:100160004934363400342634493449343E3400347A
:1001700000343634363400340034003456343634E7
:10018000003400340834143422344134003414343C
:10019000143414341434003400344134223414340C
:1001A0000834023401345134093406343E344134C5
:1001B000593455345E347E3409347E34003400348E
:1001C0007F3449343634003400343E3441342234F0
:1001D000003400347F3441343E34003400347F3402
:1001E00049344134003400347F340934013400345C
:1001F00000343E34413449343A3400347F340834D6
:100200007F3400340034003441347F3441340034CE
:10021000303440343F34003400347F3408341434F4
:10022000633400347F3440344034003400347F344D
:1002300002340C3402347F347F3402340434083402
:100240007F343E3441343E34003400347F3409344A
:100250000634003400341E34213421345E3400343A
:100260007F3409347634003400340A148A100A11B9
:100270003C3E03188A0A8200263449343234003462
:100280000034003401347F34013400343F344034CE
:100290003F34003400341F342034403420341F34C1
:1002A0007F342034103420347F34413422341C34E1
:1002B000223441340734083470340834073461344C
:1002C000513449344734003400347F3441340034ED
:1002D0000034023404340834103420340034003440
:1002E00041347F34003404340234013402340434A1
:1002F000403440344034403400340034013402345B
:10030000043400343834443444347C3400347F348E
:1003100044344434383400343834443444340034BD
:1003200000343834443444347F3400343834543462
:10033000543418340034003404347E34053400342A
:100340000834543454343C3400347F340434783426
:1003500000340034003400347A3400340034203463
:10036000003444343D3400347E3410342834443472
:100370000034003441347F34403400347C3404345D
:100380007834043478347C340434783400340034E1
:10039000383444343834003400347C341434143465
:1003A000083400340834143414347C3400340034F9
:1003B0007C34083404340034083454345434203445
:1003C0000034003404343F34443400343C3440348A
:1003D0007C34003400341C342034403420341C3449
:1003E0003C344034303440343C34443428341034C9
:1003F000283444340C3450343C3400340034003459
:10040000643454344C3400340034083436344134C9
:100410004134003400347F340034003441344134FA
:1004200036340834003402340134023404340234E3
:10043000A70A0319A80A2708463C031D292AA80869
:10044000031D292AA801A701831686138030831271
:1004500086060B118A110A121B28412143224523CB
:10046000472449254B264D274F285129532A552BE0
:10047000572C592D0000613163326533673469357B
:100480006B366D376F387139733A753B773C793D10
:1004900000013119331A351B371C3918000003309D
:1004A000B602031C5D2A363084008313000803194A
:1004B0005D2A5B2A0000800B5A2A08000030831650
:1004C0008600861283128612831606118312061581
:1004D00083168611831286110830C300C3080319DE
:1004E0008A2A831686108312861042088039031DDB
:1004F0007E2A8316061083120610822A831606109F
:100500008312061483168610831286140310C20DFC
:10051000C3036E2A8316861283128616080083167A
:100520000612831206124108C2005E22080036300D
:100530008400831300080319AB2A0530F800F70183
:10054000F70BA02AF80B9F2A2E30F700F70BA62AEC
:10055000A92A800B9D2A08004308F80142020318CB
:10056000B42A4208F700C02AF7010830C400C20DBF
:10057000F70D430877020318F700F80DC40BB72AEC
:100580000800BF013E08B038C000C1008F223D08FE
:100590000F39C000C1008F223D0EF7000F30F70564
:1005A00077081038C000C1008F2201303D07C1001C
:1005B000C2000630C300AC227808BF0001303D07FE
:1005C000C100C2000630C300AC227708031DBF0A79
:1005D0003E08A9003F08AA003D08AB0008008316AA
:1005E0000612831206163C08C2005E22AB0A2B08D4
:1005F000BD002908BE00C12208008316861283129E
:1006000086128316061383120613C830B6004F22D3
:100610008316061383120617C830B6004F22C8305F
:10062000C1008F22A330C1008F22A030C1008F22D1
:10063000A630C1008F222C30C1008F220330B600BB
:1006400097222E30C1008F220330B60097222F3020
:10065000C1008F222030C1008F224030C1008F2284
:100660008130C1008F223230C1008F22E030C100C2
:100670008F22B6013608073C031C4E2BB701370802
:100680007F3C031C4C2B3708BD003608BE00C1223E
:10069000BC01EF22B70A3F2BB60A3A2BBD01BE01BF
:1006A000C122AF30C1008F228A110A12962CF701A5
:1006B000F8013D0803103E18F707F70CF80CBE18B8
:1006C000F707F70CF80C3E19F707F70CF80CBE19F2
:1006D000F707F70CF80C3E1AF707F70CF80CBE1AE0
:1006E000F707F70CF80C3E1BF707F70CF80CBE1BCE
:1006F000F707F70CF80C08002A08153C0318952B8F
:100700002908063C031C912B01302907B038BB0097
:10071000C1008F22C1018F221030C1008F22013011
:10072000A9070130AA00AB01962BAA0A3908203C80
:10073000031DA42BBA013A08013C031CA32BBC01E6
:10074000EF22BA0A9B2BE62BBA013A08043C031CA1
:10075000E62B3908523C031CC92B20303902BC005F
:10076000BD000530BE0057233A0878072F20F80057
:10077000F8080319C82B20303902BC00BD00053031
:10078000BE0057233A0878072F20BB00BC00EF2299
:10079000E42B53303902BC00BD000530BE005723A6
:1007A0003A0878073521F800F8080319E42B53308C
:1007B0003902BC00BD000530BE0057233A08780757
:1007C0003521BB00BC00EF22BA0AA52BBC01EF22E9
:1007D0000800831603178C170C1400000000831206
:1007E0000C087F3903192D2C0313B60003170D08CD
:1007F0000313B70003170F080313B8003608B90036
:100800007C23370803178D000313380803178F0064
:1008100083168C170C140000000083120C0D0E0DB3
:100820007F3903192D2C0313B60003170D0803138A
:10083000B70003170F080313B8003608B9007C236C
:10084000370803178D000313380803178F008D0A2C
:1008500003198F0A0313E92B031703130800B901C7
:1008600036087F3C031C372C37083F3C031C812C87
:10087000391437080739F800F8080319432C031016
:10088000B90DF80B3F2C3908BA00370CBB00BB0C74
:10089000BB0C1F30BB053608BD003B08BE00C122A3
:1008A000FF30831686008612831286128316861105
:1008B00083128615831606128312061683160611F6
:1008C000831206118316861283128616672C682CF3
:1008D0008316861283128612FF30831686008312D7
:1008E0000608F800772C831686128312861678087D
:1008F000B904B808031D7E2C3A08B9023908BC00B7
:10090000EF220800840183131F308305A801A7018B
:10091000A901AA01AB01B301B20183161F149F14F0
:100920001F159F118312AC01AD01FD2ABD01BE014F
:10093000C1222D3003178D0002308F000313E923ED
:10094000BD010230BE00C1223B3003178D000230D2
:100950008F000313E923BD010430BE00C1224930DA
:1009600003178D0002308F000313E923B40134080C
:100970007F3C031CC72C3408B6000330B70001309D
:10098000B8002F240A30B6009722B40AB72CB4015D
:1009900034087F3C031CD82C3408B6002330B70041
:1009A0000130B8002F240A30B6009722B40AC82CB0
:0409B000D82C6300DC
:02400E003A3D39
:00000001FF
;PIC16F876
;CRC=34D8  CREATED="16-jan-15 16:27"
