:1000000007308A00632F00000A108A100A11820745
:1000100000340034003400340034003400345F34E1
:10002000003400340034073400340734003414340E
:100030007F3414347F34143424342A347F342A3403
:10004000123423341334083464346234363449347B
:100050005534223450340034053403340034003431
:1000600000341C342234413400340034413422340E
:100070001C340034143408343E3408341434083446
:1000800008343E34083408340034503430340034FA
:100090000034083408340834083408340034603438
:1000A0006034003400342034103408340434023412
:1000B0003E345134493445343E34003442347F3484
:1000C00040340034423461345134493446342134AC
:1000D000413445344B3431341834143412347F34C1
:1000E0001034273445344534453439343C344A34AB
:1000F000493449343034013471340934053403341B
:100100003634493449344934363406344934493470
:1001100029341E340034363436340034003400348C
:100120005634363400340034083414342234413424
:10013000003414341434143414341434003441347A
:10014000223414340834023401345134093406346E
:1001500032344934793441343E347E3411341134EC
:1001600011347E347F3449344934493436343E3492
:1001700041344134413422347F34413441342234D7
:100180001C347F3449344934493441347F34093490
:100190000934093401343E344134493449347A3421
:1001A0007F340834083408347F34003441347F34D9
:1001B000413400342034403441343F3401347F34FE
:1001C00008341434223441347F34403440344034D1
:1001D00040347F3402340C3402347F347F340434AE
:1001E000083410347F343E344134413441343E3499
:1001F0000000000000000A148A100A11023E0318D1
:100200008A0A82007F3409340934093406343E34C2
:100210004134513421345E347F3409341934293463
:100220004634463449344934493431340134013494
:100230007F34013401343F344034403440343F345F
:100240001F342034403420341F343F344034383499
:1002500040343F3463341434083414346334073482
:100260000834703408340734613451344934453427
:10027000433400347F344134413400340234043494
:100280000834103420340034413441347F34003495
:1002900004340234013402340434403440344034F1
:1002A0004034403400340134023404340034203407
:1002B00054345434543478347F34483444344434DB
:1002C00038343834443444344434203438344434B6
:1002D000443448347F343834543454345434183427
:1002E00008347E340934013402340C34523452342C
:1002F00052343E347F3408340434043478340034C7
:1003000044347D34403400342034403444343D346B
:1003100000347F3410342834443400340034413401
:100320007F34403400347C3404341834043478345A
:100330007C34083404340434783438344434443459
:10034000443438347C3414341434143408340834C9
:100350001434143418347C347C34083404340434B5
:1003600008344834543454345434203404343F343E
:100370004434403420343C344034403420347C34E1
:100380001C342034403420341C343C344034303469
:1003900040343C34443428341034283444340C344D
:1003A0005034503450343C344434643454344C3439
:1003B00044340034083436344134003400340034DA
:1003C0007F3400340034003441343634083400348F
:1003D0001034083408341034083478344634413446
:1003E000463478347C3409340534053478347E342A
:1003F0000534093411347E3432308400831300080C
:100400000319102A0130A100A001A00B052AA10B9D
:10041000042A4A30A000A00B0B2A0E2A800B022AC5
:10042000080083160711831207110230A000A00BE9
:10043000172A0000D41B1E2A87101F2A8714831630
:10044000871002308312A000A00B242A000083161C
:100450000711831207150230A000A00B2D2A0000FF
:1004600083160711831207110230A000A00B362A51
:100470000000541B3D2A87103E2A871483168710DC
:1004800002308312A000A00B432A0000831607113C
:10049000831207150230A000A00B4C2A000083161F
:1004A0000711831207110230A000A00B552A00008B
:1004B000D41A5C2A87105D2A8714831687100230AD
:1004C0008312A000A00B622A00008316071183127A
:1004D00007150230A000A00B6B2A0000831607113D
:1004E000831207110230A000A00B742A0000541AD6
:1004F0007B2A87107C2A8714831687100230831288
:10050000A000A00B812A0000831607118312071593
:100510000230A000A00B8A2A000083160711831264
:1005200007110230A000A00B932A0000D4199A2AC8
:1005300087109B2A87148316871002308312A0002D
:10054000A00BA02A000083160711831207150230A2
:10055000A000A00BA92A000083160711831207111F
:100560000230A000A00BB22A00005419B92A87104B
:10057000BA2A87148316871002308312A000A00BBA
:10058000BF2A000083160711831207150230A0004E
:10059000A00BC82A0000831607118312071102302E
:1005A000A000A00BD12A0000D418D82A8710D92A7D
:1005B00087148316871002308312A000A00BDE2A56
:1005C000000083160711831207150230A000A00B4C
:1005D000E72A000083160711831207110230A000DA
:1005E000A00BF02A00005418F72A8710F82A871465
:1005F0008316871002308312A000A00BFD2A000092
:1006000083160711831207150230A000A00B062BDA
:100610000000080007118316071102308312A000A2
:10062000A00B102B00008711831687110230831254
:10063000A000A00B192B0000871083168710023032
:100640008312A000A00B222B0000071583160711B0
:1006500002308312A000A00B2B2B00005308D40003
:10066000112207118316071102308312A000A00B7C
:10067000372B000087158316871102308312A000E4
:10068000A00B402B00000800071183160711023051
:100690008312A000A00B4A2B00008711831687113C
:1006A00002308312A000A00B532B00008714831686
:1006B000871002308312A000A00B5C2B00000715EE
:1006C0008316071102308312A000A00B652B0000D7
:1006D0005308D40011220711831607110230831228
:1006E000A000A00B712B0000871583168711023024
:1006F0008312A000A00B7A2B000008002A30D30040
:100700000A234F08D30044235008D30044232B303E
:10071000D3000A235108D30044235208D3004423B2
:1007200008004330B5000930B400CF018330D00059
:10073000D101D2007E232C30D3000A233508B30028
:100740003408B200B208031DA82BB3080319B02B5C
:100750003108D300442332080319B303B203A22B98
:10076000080000308316870087018312870141301B
:10077000B200FC218715831687110000831207142D
:100780008316071002308312B100FA30B200FC2148
:10079000B10BC52B07108316071002308312B1006E
:1007A000FA30B200FC21B10BD02B071483160710CE
:1007B0000000831287118316871100000130831215
:1007C000D3000A2300001130D3000A2300000330B5
:1007D000D3000A230A30B200FC212930D3000A23B7
:1007E00000002030D3000A2300003A30D3000A234F
:1007F00000000230D300442300002D30D3000A2330
:100800000000D301442300000230D3004423000041
:100810000430D300442300000630D30044230000FA
:100820000830D300442300000A30D30044230000E2
:100830000C30D300442300000F30D30044230000C9
:10084000D301442300000230D300442300000430CD
:10085000D300442300000630D300442300000830B6
:10086000D300442300000A30D300442300000C309E
:10087000D300442300000F30D30044230000D301F1
:10088000442300000430D300442300000930D30087
:10089000442300000F30D30044230000D3010A2377
:1008A00000003630D3000A230000C030D3004423B8
:1008B00000003008B10087118316871102308312BF
:1008C000A000A00B612C00002530D3000A233108C2
:1008D000D300442387158316871102308312A000AA
:1008E000A00B702C00000000FF30B100912300002D
:1008F0008A119D2F4C08CF004C08D0004D08D10024
:100900004D08D2007E232C30D3000A234E08D3009A
:10091000442308000130C500C600CB013C083E025C
:10092000CC004C08CC1F962C4C08003CA301C30003
:100930002308C4003D083F02CC004C08CC1FA22C69
:100940004C08003CA301C1002308C2003C083E0241
:100950000318AC2CFF30C5003D083F020318B22C31
:10096000FF30C60042084402031CFE2C031DBC2CB1
:1009700041084302031CFE2C0310C10DC20D4308A5
:100980004102A0004208A3004408031C440FA30234
:100990002008C7002308C80043084702C9004808C8
:1009A000CA004408031C440FCA02C408031DDC2CFF
:1009B0004B084302031CFD2C3C08CC003D08CD0035
:1009C0004008CE007A24C81FEF2C4108C707420810
:1009D0000318420FC80745083C07BC00FB2C490818
:1009E000C7074A0803184A0FC80745083C07BC0058
:1009F00046083D07BD00CB0AD52C3F2D0310C30D83
:100A0000C40D41084302A0004408A3004208031C8F
:100A1000420FA3022008C7002308C800410847026C
:100A2000C9004808CA004208031C420FCA02C20893
:100A3000031D1E2D4B084102031C3F2D3C08CC001A
:100A40003D08CD004008CE007A24C81F312D430850
:100A5000C70744080318440FC80746083D07BD00F0
:100A60003D2D4908C7074A0803184A0FC80745081B
:100A70003C07BC0046083D07BD00CB0A172D080007
:100A8000A001A101410803104218A007A00CA10C6D
:100A9000C218A007A00CA10C4219A007A00CA10C21
:100AA000C219A007A00CA10C421AA007A00CA10C0F
:100AB000C21AA007A00CA10C421BA007A00CA10CFD
:100AC000C21BA007A00CA10C0800B5013208B6009B
:100AD0003208013CB700B3080319CB2D35083002AA
:100AE000B80036083107B90035083007BA003608B3
:100AF0003107BB003808BC003908BD003A08BE0009
:100B00003B08BF003408C0008A2435083002B80012
:100B100036083102B90035083007BA00360831020C
:100B2000BB003808BC003908BD003A08BE003B08CD
:100B3000BF003408C0008A2436083002B8003508E7
:100B40003107B90036083007BA0035083107BB0055
:100B50003808BC003908BD003A08BE003B08BF0099
:100B60003408C0008A2436083002B8003508310243
:100B7000B90036083007BA0035083102BB00380822
:100B8000BC003908BD003A08BE003B08BF0034086D
:100B9000C0008A24332E30083507B80031083607E4
:100BA000B9003808CC003908CD003408CE007A24CA
:100BB00030083607B80031083507B9003808CC00CE
:100BC0003908CD003408CE007A2435083002B80048
:100BD00031083607B9003808CC003908CD00340890
:100BE000CE007A2436083002B80031083507B90043
:100BF0003808CC003908CD003408CE007A243008FB
:100C00003607B80035083102B9003808CC00390879
:100C1000CD003408CE007A2430083507B8003608F5
:100C20003102B9003808CC003908CD003408CE00B4
:100C30007A2435083002B80036083102B900380885
:100C4000CC003908CD003408CE007A2436083002B2
:100C5000B80035083102B9003808CC003908CD0099
:100C60003408CE007A24B71F412E3508B50AB800E3
:100C70000230C1003808C20040252108033EB707F2
:100C8000502E3508B50AB8003608B6033802B80049
:100C90000230C1003808C20040252108053EB707D0
:100CA0003508803AA0003608803A200203196B2DDF
:100CB000031C6B2D8A11BD2F3308A300320884005A
:100CC00083132318831780080319612F3308A300A7
:100CD000320884008313231883170008523C031C36
:100CE0008F2E3308A3003208840083133318831730
:100CF000203000020420C0008400831341188317B1
:100D00000008BB00840A0008BC00840A0008BD007B
:100D1000840A0008BE00840A0008BF00C72E3308FA
:100D2000A3003208840083132318831700087E3C35
:100D3000031CB82E3308A300320884008313331831
:100D4000831753300002F820C00084008313411839
:100D500083170008BB00840A0008BC00840A00084E
:100D6000BD00840A0008BE00840A0008BF00C72E28
:100D70000008BB00840A0008BC00840A0008BD000B
:100D8000840A0008BE00840A0008BF00840A3308F1
:100D9000A3003208840083132318831700080A3A3B
:100DA0000319D62E073A0319DF2EE12E0730C100B2
:100DB0003408C200402501302107B1075C2FB00183
:100DC0005C2F0530C1003408C200402521083007DF
:100DD000833C0318F42EB0010730C1003408C20070
:100DE000402501302107B107B7013708043C031C37
:100DF0005C2FB8013808063C031C582F3B303707DE
:100E0000840083130008C000A0003808A100031963
:100E10000D2F0310A00CA10B092F201C312FB9019D
:100E2000340839020318302FBA0134083A02031883
:100E30002E2F3A083007C0003808C1003408C2001D
:100E40004025210831073907C1004008CC0041087E
:100E5000CD003508CE007A24BA0A152FB90A102F12
:100E6000562F3608043C0319562FB90134083902AD
:100E70000318562FBA0134083A020318542F3A08BF
:100E80003007C0003808C1003408C20040252108DE
:100E900031073907C1004008CC004108CD003608B1
:100EA000CE007A24BA0A3B2FB90A362FB80AFA2E96
:100EB000B70A3408B007F52EB20A0319B30AB00A0C
:100EC0005C2E8A11C92F840183131F308305613082
:100ED00083168F000F088312911119309300A630EA
:100EE0009600903097001F130030831691008312F4
:100EF0009A01073099002130A900AA00AB00AC008C
:100F0000AD00AE00AF011F130030831691008312B5
:100F10001F1090019A01073099008316050885007B
:100F200003308312A000A00B932F19088C11831695
:100F3000990164308312B000B12B0430B000FA3054
:100F4000B200FC21B00B9F2FB10191230430B000FF
:100F5000FA30B200FC21B00BA82F3230CC00CD000B
:100F60000330CE007A243230B000B1001430B20029
:100F70000130B3000330B400652D0A30B000B10079
:100F8000B3012930B2000130B400FF30B500B60122
:060F90005C2EA62F630099
:02400E00F4308C
:00000001FF
;PIC16F688
;CRC=FBEF  CREATED="27-mar-14 20:05"
